:100000000C9415010C94710D0C944A0D0C94230D55
:100010000C94FC0C0C943D010C943D010C94D50CFB
:100020000C943D010C943D010C94980D0C94160E0B
:100030000C943D010C943D010C943D010C943D0148
:100040000C943D010C943D010C943D010C943D0138
:100050000C943D010C943D010C943D010C948B0CCF
:100060000C943D010C946E100C9448100C943D01BE
:100070000C943D010C943D010C943D010C943D0108
:100080000C943D010C943D010C943D010C943D01F8
:100090000C943D010C943D010C943D010C943D01E8
:1000A0000C943D010C943D010C943D0107634236D4
:1000B000B79BD8A71A39685618AEBAAB558C1D3CF9
:1000C000B7CC5763BD6DEDFD753EF6177231BF00BD
:1000D0000000803F08000000BE922449123EABAAF7
:1000E000AA2ABECDCCCC4C3E00000080BEABAAAA52
:1000F000AA3E00000000BF000000803F000000009A
:1001000000084178D3BB4387D1133D190E3CC3BDD2
:100110004282AD2B3E68EC8276BED98FE1A93E4C7F
:1001200080EFFFBE01C4FF7F3F0000000000080B0E
:1001300000020202000009040000010202000005A2
:1001400024001001052401010104240206052406EF
:1001500000010705810310004009040100020A00A4
:10016000000007050202400000070583024000006E
:100170000403090412010002EF020140412336800A
:1001800000010102030141726475696E6F204C4CDD
:10019000430041726475696E6F204C656F6E6172C9
:1001A000646F00070605040100080A0B0C0D090026
:1001B000000000240027002A002D0030000000006D
:1001C00000250028002B002E003100040404040444
:1001D00003040502020202040302020202060606EA
:1001E0000606060404020202040404080201104088
:1001F0008040102040804080080204018040201090
:100200000201108010204040200000000200090F71
:100210000000030401000C000000000000000000CA
:100220000000000000000000B31011241FBECFEF3B
:10023000DAE0DEBFCDBF14E0A0E0B1E0ECE1F2E433
:1002400002C005900D92AC3EB107D9F727E0ACEEA5
:10025000B4E001C01D92A434B207E1F711E0C5E19A
:10026000D1E004C02197FE010E94E81EC431D107ED
:10027000C9F70E948F110C940C210C940000FC0112
:1002800080914E05882311F13FB7F89482E0809366
:10029000E9002091F200822F90E01816190614F45C
:1002A00081E090E0882339F0289844E640934D059A
:1002B0004091F1004083222339F02091F200211176
:1002C00003C02BE62093E8003FBF08958FEF9FEF18
:1002D0000895282F30E0F901E75FFD4F9491F9016F
:1002E000E651FE4F849125533E4FF901249122237C
:1002F00009F430C09923E9F091509F30D0F4E92FF0
:10030000F0E0EB57FE4F0C94E81EB301B7019401E7
:10031000AB01AF01990199019901BA01C001C40172
:10032000C801CE019901D201909180009F779093EE
:100330008000E22FF0E0EE0FFF1FE354FE4FA59187
:10034000B4919FB7F894EC91611132C080958E23DF
:100350008C939FBF0895909180009F7DE8CF9091EE
:100360008000977FE4CF94B59F7794BDE2CF94B59A
:100370009F7DFBCF909190009F7790939000D9CF75
:10038000909190009F7DF9CF90919000977FF5CF4D
:100390009091C0009F779093C000CBCF9091C00008
:1003A0009F7DF9CF9091C200977F9093C200C1CFFB
:1003B0008E2BCECF282F30E0F901E651FE4F9491DD
:1003C000F901E553FE4F4491442399F050E0440F66
:1003D000551FFA01E155FE4FA591B491FA01E3547E
:1003E000FE4F459154914FB7F894EC91E92BEC9363
:1003F0004FBF6115710519F460E00C9469016F3FFE
:10040000710511F461E0F9CFF901E75FFD4FE49167
:10041000E150EF3008F07CC0F0E0EF5EFD4F0C944F
:10042000E81E200225022A0234023E0288028802C7
:100430008802480252025C026602730288027B0252
:1004400084B5806884BD67BD089584B5806284BD2D
:1004500068BD0895809180008068809380007093CB
:100460008900609388000895809180008062809365
:10047000800070938B0060938A00089580918000C3
:1004800088608093800070938D0060938C00089545
:1004900080919000806880939000709399006093A1
:1004A00098000895809190008062809390007093EE
:1004B0009B0060939A0008958091900088608093DB
:1004C000900070939D0060939C0008958091C000FF
:1004D00080688093C0008091C0008F7B8093C000B3
:1004E0006093CF0008958091C00080628093C00027
:1004F0006093D00008958091C20088608093C2000C
:100500008091C2008B7F8093C2006093D2000895D7
:10051000603871050CF076CF6FCF3FB7F8948091BB
:10052000490590914A05A0914B05B0914C0526B51F
:10053000A89B05C02F3F19F00196A11DB11D3FBF1B
:10054000BA2FA92F982F8827BC01CD01620F711DEA
:10055000811D911D42E0660F771F881F991F4A95E4
:10056000D1F70895CF92DF92EF92FF920E948D0211
:100570006B017C010E948D026C197D098E099F0917
:10058000683E734081059105A8F3FF90EF90DF90DE
:10059000CF9008952FB7F894609145057091460566
:1005A00080914705909148052FBF08950895809345
:1005B000E9008091F200882319F08AE38093E80033
:1005C00008954091FE045091FF042091FC04309165
:1005D000FD0442175307B4F49091E8009570E1F3DD
:1005E0009091E80092FD19C08093F1008091FE0483
:1005F0009091FF0401968F739927892B19F48EEF40
:100600008093E8008091FE049091FF0401969093FE
:10061000FF048093FE0481E0089580E00895EF9246
:10062000FF920F931F93CF93DF93F82E192FE62E8F
:10063000042F81E0860F880F0E94E10283E00E9470
:10064000E102CF2DD12FEC0EFD2EF11CCE15DF05D2
:10065000B9F007FF13C0FE0184910E94E102182F38
:1006600080E00E94E102812321968111EFCFDF918A
:10067000CF911F910F91FF90EF9008958881EDCF5A
:1006800081E0F5CFDF92EF92FF920F931F93CF930C
:10069000DF93D82E8A01EB017B01E40EF51ECE1507
:1006A000DF0559F0D7FE12C0FE0184910E94E102DD
:1006B00021968111F4CF0FEF1FEFC801DF91CF9189
:1006C0001F910F91FF90EF90DF9008958881EECFFA
:1006D0002FB7F89487708093E9009091E800892FF4
:1006E000807295FF04C09091F20080E4891B2FBFB7
:1006F00008957F928F929F92AF92BF92CF92DF9296
:10070000EF92FF920F931F93CF93DF93C82E8B012D
:100710007A0180914E05811110C08FEF9FEFDF911C
:10072000CF911F910F91FF90EF90DF90CF90BF90EE
:10073000AF909F908F907F9008958091020580FFE9
:1007400005C08091E00082608093E000CE2DDF2D17
:10075000D12C8AEFB82E8C2D8770982E8C2D80721C
:10076000882E8C2D8074782E9AE3A92E209719F468
:10077000DD2009F44EC08C2D0E946803811106C053
:10078000BA94BB2051F20E94B202F0CF8C171D0622
:1007900011F00CF08C2F9FB7F8949092E900209103
:1007A000E80025FD02C09FBFE1CF282F30E0C21B2B
:1007B000D30B882029F08150A0F01092F100FBCFDC
:1007C000F801C7FC0AC0815050F041914093F100FC
:1007D000FACF44914093F10031968150D0F7020F47
:1007E000131FDD2021F0A092E800D12CDCCF8091F6
:1007F000E80085FD07C0A092E800DD24D39420978F
:1008000091F2F3CF209779F6772069F2A092E80071
:10081000CACF5D9884E680930105C70180CF9FB75A
:10082000F89487708093E9008091F2009FBF08954B
:10083000615030F02091F100FC0120830196F8CF47
:10084000289884E680934D050895AF92BF92CF9289
:10085000DF92EF92FF920F931F93CF93DF936C0180
:100860007B018B01040F151FEB015E01AE18BF0861
:10087000C017D10759F06991D601ED91FC91019013
:10088000F081E02DC6010995892B79F7C501DF912B
:10089000CF911F910F91FF90EF90DF90CF90BF907D
:1008A000AF9008958091F40481110DC082E080938F
:1008B000F00484E08093F1041092F3041092F204A7
:1008C00081E08093F40480EF94E008950F931F93E8
:1008D000CF93DF931F92CDB7DEB782E0898342E4E6
:1008E00050E06EE271E080E80E9442030E945204F0
:1008F000DC0112960D911C910115110589F0D801AA
:10090000ED91FC910280F381E02DBE016F5F7F4F7E
:10091000C801099597FD04C0F80100851185ECCF49
:1009200089810F90DF91CF911F910F910895FC0164
:10093000538D448D252F30E0842F90E0821B930B44
:10094000541710F0CF96089501970895FC01918DEA
:10095000828D981761F0A28DAE0FBF2FB11D5D96ED
:100960008C91928D9F5F9F73928F90E008958FEF8F
:100970009FEF0895FC01918D828D981731F0828D43
:10098000E80FF11D858D90E008958FEF9FEF08959A
:10099000FC01918D228D892F90E0805C9F4F821BFE
:1009A00091098F739927089580ED95E00E94C804FE
:1009B00021E0892B09F420E0822F089580E090E067
:1009C000892B29F00E94D40481110C940000089511
:1009D000FC01A48DA80FB92FB11DA35ABF4F2C91B4
:1009E000848D90E001968F739927848FA689B789AB
:1009F0002C93A089B1898C9182748C93938D848D72
:100A0000981306C00288F389E02D80818F7D808352
:100A10000895EF92FF920F931F93CF93DF93EC0112
:100A200081E0888F9B8D8C8D981319C0E889F98996
:100A3000808185FF14C09FB7F894EE89FF89608399
:100A4000E889F9898081827480839FBF81E090E08A
:100A5000DF91CF911F910F91FF90EF900895F62EA7
:100A60000B8D10E00F5F1F4F0F731127E02E8C8D41
:100A70008E110CC00FB607FCFACFE889F989808186
:100A800085FFF5CFCE010E94E804F1CFEB8DEC0F8E
:100A9000FD2FF11DE35AFF4FF0829FB7F8940B8FA3
:100AA000EA89FB8980818062CFCFCF93DF93EC010D
:100AB000888D8823B9F0AA89BB89E889F9898C9146
:100AC00085FD03C0808186FD0DC00FB607FCF7CF02
:100AD0008C9185FFF2CF808185FFEDCFCE010E9402
:100AE000E804E9CFDF91CF910895CF93DF93EC0134
:100AF00080910B01882331F083E00E94790318165E
:100B0000190634F081E090E09B838A8380E090E0D6
:100B1000DF91CF910895CF93DF931F92CDB7DEB7CA
:100B20006983DC01ED91FC910280F381E02D41E0CD
:100B300050E0BE016F5F7F4F09950F90DF91CF911D
:100B4000089583E00C94D70283E00E94680390E04C
:100B50000895CF93DF931F92CDB7DEB7FC01848554
:100B6000958597FD08C02FEF3FEF358724870F90BD
:100B7000DF91CF910895CE0101960E943F01019728
:100B800019F4898190E0F3CF8FEF9FEFF0CF0F93AF
:100B90001F930E94CA026093750670937606809335
:100BA0007706909378068DE696E00E94A90597FF58
:100BB0001DC00E94CA020091750610917606209110
:100BC000770630917806601B710B820B930B0091B6
:100BD00071061091720620917306309174066017A9
:100BE000710782079307F8F28FEF9FEF1F910F9124
:100BF00008950F931F93CF93DF931F92CDB7DEB766
:100C00008C01FC018485958597FF0BC0CE01019670
:100C10000E943F01019771F4898190E0F801958766
:100C20008487F801848595850F90DF91CF911F917E
:100C30000F9108958FEF9FEFF1CFFC01848595858B
:100C400097FD06C082E00E940F0490E0019608958F
:100C500082E00E940F0490E0089590E080E0089503
:100C600080E008950F931F93CF93DF93CDB7DEB746
:100C7000C456D1090FB6F894DEBF0FBECDBFFC013C
:100C8000DB019C919E5F9C939E01295F3F4F8AE50B
:100C9000D9011D928A95E9F788E089838BE08A83E0
:100CA00022E02C8391E09D839E8339E0398764E0C4
:100CB0006A879E879F873A8B44E24B8B9C8BA0E090
:100CC000B1E0BE8BAD8B09E010E0188F0F8B998FD0
:100CD0003B8F6C8F2F8F98A353E059A387E08CA391
:100CE0004DA39EA3B8A7AFA3A1E4B0E0BAA7A9A75C
:100CF00086E08BA74CA72DA79EA79FA789AB4AABE1
:100D00002BAB2CAB2DAB3FAB48AF59AF9AAF5BAF22
:100D10009CAF2DAF9EAF21963FAF219722964FAF4C
:100D2000229723965FAF239724962FAF249725967B
:100D30006FAF259726969FAF269727969FAF279749
:100D400028969FAF28972A963FAF2A9745E02B9683
:100D50004FAF2B972D962FAF2D9760E470E02F9615
:100D60007FAF6EAF2F9763964FAF639785E2649620
:100D70008FAF649765969FAF659766969FAF6697AE
:100D800067969FAF679768963FAF689769964FAF32
:100D900069976B962FAF6B976D967FAF6EAF6D9720
:100DA000A1964FAFA197A2968FAFA297A3969FAFA0
:100DB000A397A4969FAFA497A5965FAFA59792819E
:100DC0009B839B879F5F9A8F9D8F83812C968FAF8C
:100DD0002C978F5F80686A968FAF6A9744E650E0E1
:100DE000BE016F5F7F4F80E00E944203CC59DF4F0E
:100DF0000FB6F894DEBF0FBECDBFDF91CF911F912C
:100E00000F910895CF93DF93EC0180E077FD07C049
:100E10006F3F710519F014F06FEF70E0862F8F832C
:100E2000EF85F889309741F00995682F70E0888147
:100E3000DF91CF910C94DA01A82FB0E021E03FEFD1
:100E40004FEF5FEF0E94AA1B2FEF30E040E050E031
:100E50000E948B1BCA01B90161507F4F8F4F9F4F7A
:100E6000E6CFAF92BF92CF92DF92EF92FF921F93A5
:100E7000CF93DF93EC011F81161709F459C08885C1
:100E8000861709F455C01A8619861B861C861D868E
:100E90001E86A62EB12C4531510568F4B501CE0150
:100EA000DF91CF911F91FF90EF90DF90CF90BF9097
:100EB000AF900C9402075A8749876887BA0190E07F
:100EC00080E00E94561A6B017C01612F70E06A1964
:100ED0007B0977FF03C0719561957109072E000C9E
:100EE000880B990B0E94581A9B01AC01C701B601EF
:100EF0000E94921C6B017C0120E030E0A9010E945D
:100F00003A1D20E030E040E05FE387FD1BC0C701F1
:100F1000B6010E94261C0E94041D64317105B8F0C0
:100F20007E836D830E94CA0269837A838B839C834C
:100F3000DF91CF911F91FF90EF90DF90CF90BF9006
:100F4000AF900895C701B6010E94251CE4CF84E14B
:100F500090E09E838D83E6CF4F925F926F927F9257
:100F60008F929F92AF92BF92EF92FF920F931F9337
:100F7000CF93DF93C9ECD6E0412C512C88EC682E3E
:100F800082E4782E89859A85892B09F442C00E94D3
:100F9000CA0229813A817B01E21AF30A8D819E817E
:100FA000E816F906B0F1B70190E080E00E94561A09
:100FB0004B015C0169857A8590E080E00E94561AB9
:100FC0009B01AC01C501B4010E94921C4B015C0164
:100FD000AC019B016B857C858D859E850E94261CBE
:100FE0006B877C878D879E8720E030E040E85FE359
:100FF000C501B4010E943A1D688587FD1FC04B865C
:101000005C866D867E861A86198670E0CE010E9407
:101010000207619687E0C034D80709F0B3CFDF91AB
:10102000CF911F910F91FF90EF90BF90AF909F9045
:101030008F907F906F905F904F9008950F8110E098
:1010400070E0601B710B072E000C880B990B0E943F
:10105000581AA50194010E94B71A4B015C0120E0C7
:1010600030E0A9010E943A1D20E030E040E05FE35B
:1010700087FD18C0C501B4010E94261C0E94041DF2
:10108000600F711FCE010E94020789859A858E1913
:101090009F099A8789870E94CA0269837A838B8312
:1010A0009C83B7CFC501B4010E94251CE7CF0F93E5
:1010B0001F93CF93DF938C01EA012091220130E04E
:1010C000DB010E94F61E2FEF30E040E050E00E946E
:1010D0008B1B31E1309FC001319F900D1124AE0177
:1010E000622F8753994FDF91CF911F910F910C94ED
:1010F00031071F93CF93DF93142FE90161506F7075
:10110000682B80ED95E00E940905612F6F7780EDD7
:1011100095E00E940905BE016F77772780ED95E085
:10112000DF91CF911F910C940905AF92BF92CF929E
:10113000DF92EF92FF920F931F93CF93DF9300D034
:1011400000D0CDB7DEB7B82EE0912801CE2ED12C3D
:10115000A0E5B5E010E000E00C151D050CF06AC03C
:1011600050967D018CE0E81AF108F701E080F180EB
:10117000EF2809F085C06A017B01F80184E0EE0FD9
:10118000FF1F8A95E1F7E05BFA4FDF011D921D9288
:10119000B28211969C9384E690E09583848380913B
:1011A000240190912501A0912601B09127018C0D79
:1011B0009D1DAE1DBF1D86839783A087B18737878E
:1011C000268760914F0570E024E630E04B2D80E9E2
:1011D00090E00E947908A0904F058091C0068F5F33
:1011E0000E940F04811112C089E089838A2D8069D1
:1011F0008A83BB8284E68C838091C00644E050E001
:10120000BE016F5F7F4F8F5F0E9479038091C006A0
:101210008F5F0E94D702809123018130D1F4E9ECE5
:10122000F6E081859285892BF1F0719687E0EF32A7
:10123000F807B9F70F900F900F900F90DF91CF91B3
:101240001F910F91FF90EF90DF90CF90BF90AF90E4
:101250000895823079F7E9ECF6E08EE197E0228D8F
:10126000338D232B41F46091220170E0A601C80167
:101270000E945708DFCF71968E179F0781F7DACF4C
:101280000F5F1F4F69CF0F931F93809143058A30E3
:1012900008F03FC00E948D020091EC041091ED0413
:1012A0002091EE043091EF04E0914305601B710B37
:1012B000820B930B24E0E29FF0011124EC5FFA4FC4
:1012C0006083718382839383E091430584E0E89F88
:1012D000F0011124EC5FFA4F80819181A281B381EA
:1012E0004091EC045091ED046091EE047091EF0494
:1012F000840F951FA61FB71F8093EC049093ED04F5
:10130000A093EE04B093EF04809143058F5F809328
:1013100043051F910F910895FC01808191810097F1
:1013200011F00C94AD1F0895FC0101900020E9F725
:101330003197AF01481B590BBC018DE696E00C9428
:1013400075058F929F92AF92BF920F931F93CF9389
:10135000DF93CDB7DEB7A1970FB6F894DEBF0FBE0F
:10136000CDBF19A2423008F44AE08E010F5D1F4F35
:10137000842E912CB12CA12CA50194010E94F41B68
:10138000E62FB901CA01EA30F4F4E05DD801EE932A
:101390008D01232B242B252B79F790E080E01097EB
:1013A00019F0CD010E949409A1960FB6F894DEBF02
:1013B0000FBECDBFDF91CF911F910F91BF90AF9026
:1013C0009F908F900895E95CE1CF0C949409CF939E
:1013D000DF930E949409EC0188E092E00E94940956
:1013E0008C0F9D1FDF91CF910895CF93DF93682FCE
:1013F00070E090E080E04AE00E94A109EC0188E002
:1014000092E00E9494098C0F9D1FDF91CF91089567
:10141000CF93DF93BC0190E080E04AE00E94A109F5
:10142000EC0188E092E00E9494098C0F9D1FDF91EF
:10143000CF910895CF92DF92EF92FF92CF93DF93F7
:101440006C01990FEE08FF08F7FE1FC06DE28DE6F4
:1014500096E00E948B05EC0166277727CB016C197B
:101460007D098E099F094AE00E94A109C80FD91F72
:1014700088E092E00E9494098C0F9D1FDF91CF912C
:10148000FF90EF90DF90CF9008954AE0C701B6013A
:101490000E94A109EC01ECCFFC01808191810097B1
:1014A00011F00C94151A60E070E0CB010895FC0176
:1014B00024813581232B39F421E0FB0180818823AD
:1014C00049F020E007C0808191810E94FC2021E04A
:1014D000892BB9F7822F08950F931F93CF93DF9332
:1014E000EC0188819981009759F02A813B81261768
:1014F000370730F081E0DF91CF911F910F91089570
:101500008B016F5F7F4F0E943620009759F09983BF
:1015100088831B830A832C813D81232B59F7FC018F
:101520001082E8CF80E0E7CFEF92FF920F931F93F6
:10153000CF93DF93EC017B018A01BA010E946C0A10
:1015400028813981811114C02115310519F0C90193
:101550000E94AD1F198218821D821C821B821A8272
:10156000CE01DF91CF911F910F91FF90EF900895E1
:101570001D830C83B701C9010E940521F1CFFB0136
:10158000DC0111961C921E9213961C921E921297C9
:1015900015961C921E9214978617970749F0608142
:1015A00071816115710521F0448155810C94940A73
:1015B00008958F929F92AF92BF92CF92DF92EF9257
:1015C000FF920F931F93CF93DF93EC018B01FB01ED
:1015D000C480D580D60111972FEF3FEFB12CA12CFD
:1015E00090E080E070E060E0A817B9072CF14617A2
:1015F000570734F1FC0131967F018C159D0560F48D
:10160000F801808091808114910431F0F401E80F99
:10161000F91FE081E03219F0A817B90759F46F5F9C
:101620007F4F5901FFEFAF1ABF0A9701A817B907FB
:1016300009F09C01C701D8CF461757070CF057C0D7
:1016400069012A153B0510F06501590119821882BC
:101650001B821A821D821C8250E040E06AE072E028
:10166000CE010E94940AF801E480F580CE14DF04D4
:1016700018F5AE14BF0408F47501F801608171819A
:10168000FB01EE0DFF1DB08010826C0D7D1D6115FC
:10169000710501F1FB0101900020E9F73197AF01DD
:1016A000461B570BCE010E94940AF801808191815C
:1016B000E80EF91EF701B082CE01DF91CF911F91A4
:1016C0000F91FF90EF90DF90CF90BF90AF909F90E1
:1016D0008F90089588819981009711F00E94AD1F25
:1016E000198218821D821C821B821A82DECFB801E9
:1016F000CE010E94BF0AE0CF84E0EBE0F2E0DB0124
:1017000001900D928A95E1F784E00895CF93DF93DD
:10171000EB010E94751B888381E090E0DF91CF91FF
:1017200008950F931F93CF93DF938C01EB010E94D9
:10173000751B8883C80101960E94751B898382E00E
:1017400090E0DF91CF911F910F910895FB0160818F
:101750000E947D1B81E090E008950F931F93CF932B
:10176000DF93EC018B01FB0160810E947D1BF8017E
:101770006181CE0101960E947D1B82E090E0DF91A5
:10178000CF911F910F910895CF93DF936AE371E09A
:1017900090E080E00E94AD0BEC0162E475E00E94F5
:1017A000A60BC80FD91F62E271E0CE010E94A60B02
:1017B000C80FD91F6FE475E0CE010E94A60BC80FB9
:1017C000D91F6AE171E0CE010E94A60BC80FD91F94
:1017D00068E271E0CE010E94A60BC80FD91F61E438
:1017E00075E0CE010E94A60BC80FD91F61E271E01F
:1017F000CE010E94A60BC80FD91F60E271E0CE0196
:101800000E94A60BC80FD91F6FE171E0CE010E94A4
:10181000A60BC80FD91F6DE171E0CE010E94AD0B80
:10182000C80FD91F6BE171E0CE010E94AD0BC80F4C
:10183000D91F6FE375E0CE010E94AD0B6EE375E03A
:101840008C0F9D1FDF91CF910C94A60BCF93DF934C
:1018500000D0CDB7DEB7BE016F5F7F4F90E080E074
:101860000E94910B89819A810C9711F00E94C40B00
:1018700062E475E082E090E00E94860B62E271E033
:1018800083E090E00E94860B6FE475E084E090E0D6
:101890000E94860B6AE171E085E090E00E94860B71
:1018A00068E271E086E090E00E94860B61E475E0FA
:1018B00087E090E00E94860B61E271E088E090E0B2
:1018C0000E94860B60E271E089E090E00E94860B46
:1018D0006FE171E08AE090E00E94860B6DE171E0BB
:1018E0008BE090E00E94910B6BE171E08DE090E065
:1018F0000E94910B6FE375E08FE090E00E94910BE6
:101900006EE375E081E190E00E94860B0F900F90EE
:10191000DF91CF9108951F920F920FB60F9211246D
:101920002F933F938F939F93AF93BF9380914505E0
:1019300090914605A0914705B09148053091440526
:1019400023E0230F2D3758F50196A11DB11D2093DB
:1019500044058093450590934605A0934705B093B1
:1019600048058091490590914A05A0914B05B09199
:101970004C050196A11DB11D8093490590934A0520
:10198000A0934B05B0934C05BF91AF919F918F9160
:101990003F912F910F900FBE0F901F90189526E842
:1019A000230F0296A11DB11DD2CF1F920F920FB629
:1019B0000F9211242F933F934F935F936F937F93D5
:1019C0008F939F93AF93BF93EF93FF93E091140195
:1019D000F09115010995FF91EF91BF91AF919F9102
:1019E0008F917F916F915F914F913F912F910F90C8
:1019F0000FBE0F901F9018951F920F920FB60F9267
:101A000011242F933F934F935F936F937F938F9303
:101A10009F93AF93BF93EF93FF93E0911201F091E7
:101A200013010995FF91EF91BF91AF919F918F9114
:101A30007F916F915F914F913F912F910F900FBECA
:101A40000F901F9018951F920F920FB60F921124AE
:101A50002F933F934F935F936F937F938F939F93B6
:101A6000AF93BF93EF93FF93E0911001F0911101B9
:101A70000995FF91EF91BF91AF919F918F917F91C8
:101A80006F915F914F913F912F910F900FBE0F90EB
:101A90001F9018951F920F920FB60F9211242F933B
:101AA0003F934F935F936F937F938F939F93AF93E6
:101AB000BF93EF93FF93E0910E01F0910F01099511
:101AC000FF91EF91BF91AF919F918F917F916F9116
:101AD0005F914F913F912F910F900FBE0F901F90EC
:101AE00018951F920F920FB60F9211242F933F93C8
:101AF0004F935F936F937F938F939F93AF93BF9316
:101B0000EF93FF93E0910C01F0910D010995FF9186
:101B1000EF91BF91AF919F918F917F916F915F9165
:101B20004F913F912F910F900FBE0F901F901895DE
:101B30001F920F920FB60F9211242F933F934F9342
:101B40005F936F937F938F939F93AF93BF93CF9345
:101B5000EF93FF93C091E1008091E100837F809338
:101B6000E100C3FF0FC01092E90081E08093EB0019
:101B70001092EC0082E38093ED0010924E0588E015
:101B80008093F000C2FF1BC083E00E94D7028091C7
:101B90000105882341F08091010581508093010562
:101BA000811101C05D9A80914D05882341F080919B
:101BB0004D05815080934D05811101C0289AC4FFC5
:101BC00023C08091E2008E7E81608093E20080914C
:101BD000E1008F7E8093E100809102058E7E80611E
:101BE00080930205FF91EF91CF91BF91AF919F91AB
:101BF0008F917F916F915F914F913F912F910F90B6
:101C00000FBE0F901F901895C0FFECCF8091E2009F
:101C10008E7E80618093E2008091E1008E7E8093D1
:101C2000E100809102058E7E8160DACF1F920F92D3
:101C30000FB60F921124CF92DF92EF92FF920F9383
:101C40001F932F933F934F935F936F937F938F9344
:101C50009F93AF93BF93EF93FF93CF93DF93CDB752
:101C6000DEB76C97DEBFCDBF1092E9008091E8002F
:101C700083FF25C068E0CE0145960E94180482EFDC
:101C80008093E8008D8987FF39C09091E80090FF2C
:101C9000FCCF982F907609F034C19E894F89588DDA
:101CA0002F89F88C911131C0803861F5809103053E
:101CB0008093F1001092F1008EEF8093E8006C9613
:101CC0000FB6F894DEBF0FBECDBFDF91CF91FF916D
:101CD000EF91BF91AF919F918F917F916F915F91A4
:101CE0004F913F912F911F910F91FF90EF90DF90B7
:101CF000CF900F900FBE0F901F9018959EEF90936E
:101D0000E800C7CF1092F100D5CF913059F481117E
:101D1000D3CF4130510581F6809103058D7F8093AB
:101D20000305CACF933049F48111C6CF4130510524
:101D300019F6809103058260F2CF953041F48091CD
:101D4000E80080FFFCCF20682093E300B5CF9630F9
:101D500009F0A9C00B8D1C8D22E01092E9001092B1
:101D6000FF041092FE04F2122EC01092FD04109295
:101D7000FC040E9466041F8299E09983FA8291E034
:101D80009E8390EA98879AEF99872091FE0430917C
:101D9000FF04275F3F4F3C832B838D831092E90024
:101DA0001092FF041092FE041093FD040093FC04B3
:101DB00049E050E0BE016F5F7F4F80E00E94420328
:101DC0000E94660479CF1093FD040093FC040E94E6
:101DD0005204DC0112960D911C910115110509F4B4
:101DE00051C1D801ED91FC910480F581E02DBE0137
:101DF0006B5E7F4FC8010995009709F03EC1F8015D
:101E000000851185EACFF3E0FF120EC08F89882389
:101E100009F440C0823061F440E860E182E991E079
:101E20000E940F03811148CF81E28093EB0047CFDE
:101E3000813029F440E86BE086E891E0F1CF83300F
:101E400099F70E945204DC011296ED90FC908E01ED
:101E50000F5F1F4F6801E114F10479F0D701ED9194
:101E6000FC910680F781E02DB801C7010995080FA4
:101E7000111DF701E084F184EECFD8011C92F60128
:101E800001900020E9F73197BF016C197D0940E00E
:101E9000C601C6CF60E771E0FB01449150E080E8E5
:101EA0000E94420309CF973009F4BECF983021F445
:101EB00081E08093F10000CF993009F0FDCE83706E
:101EC00009F0B2CFEAE2F1E081E031E096E321915E
:101ED000222371F08093E9003093EB00DF0111972A
:101EE0002C912093EC009093ED008F5F873079F771
:101EF0008EE78093EA001092EA008F8980934E0566
:101F0000DBCE8B8D9C8D1092E9001092FF04109215
:101F1000FE049093FD048093FC04898D811192C08E
:101F20008E899D89913A49F4813209F07DCF47E04D
:101F300050E064E071E080E0B3CF913209F074CFFB
:101F4000833269F48F89988DB0E0A0E0809300011E
:101F500090930101A0930201B0930301ADCE8032B2
:101F600069F48091E80082FFFCCF67E084E091E0B3
:101F70000E9418048BEF8093E8009ECE823209F015
:101F80009BCE8F8980930B01EEEFFFE785919491B3
:101F90008B3F9C4D51F1E0E0F8E08091040190917D
:101FA0000501A0910601B0910701803B9440A10575
:101FB000B105F1F480910B0180FD1AC0EE3F8AE07B
:101FC000F80789F587E797E7918380838091600020
:101FD0008093000588E19BE00FB6F894A895809364
:101FE00060000FBE9093600067CEEEEFFAE0D5CFB1
:101FF000808191818737974709F05ECEA8958091BF
:10200000600088618093600080910005809360008B
:10201000EE3F2AE0F20789F08091FE0A9091FF0AD4
:102020009183808349CE808191818737980751F2CF
:102030009093FF0A8093FE0AC5CF1092FF0A109278
:10204000FE0A3ACE0E945204DC0112960D911C91B8
:102050000115110509F4E8CED801ED91FC9101902C
:10206000F081E02DBE016B5E7F4FC80109958111A3
:1020700023CEF80100851185EBCF181619060CF454
:102080001BCED2CEF1E0FF12BECE64E771E004CFEA
:102090001F920F920FB60F9211242F933F934F93DD
:1020A0005F936F937F938F939F93AF93BF93EF93C0
:1020B000FF9380ED95E00E94E804FF91EF91BF91BE
:1020C000AF919F918F917F916F915F914F913F91D0
:1020D0002F910F900FBE0F901F9018951F920F9287
:1020E0000FB60F9211242F938F939F93EF93FF932B
:1020F000E091E005F091E1058081E091E605F09145
:10210000E70582FD1BC090818091E9058F5F8F7389
:102110002091EA05821741F0E091E905F0E0E053F3
:10212000FA4F958F8093E905FF91EF919F918F91E1
:102130002F910F900FBE0F901F9018958081F4CFB4
:10214000FC0160831782108611821282138214822E
:1021500016821582128611861386148615861686B7
:10216000108A17860895CF93DF931092D3051092AB
:10217000D20588EE93E0A0E0B0E08093D405909380
:10218000D505A093D605B093D7052CED31E030935B
:10219000D1052093D0052DEC30E03093DD05209360
:1021A000DC052CEC30E03093DF052093DE0528ECD5
:1021B00030E03093E1052093E00529EC30E03093E6
:1021C000E3052093E2052AEC30E03093E505209307
:1021D000E4052EEC30E03093E7052093E6051092FD
:1021E000E9051092EA051092EB051092EC051092A9
:1021F000700610926F068093710690937206A093FA
:102200007306B09374068EEE91E090936E06809301
:102210006D068FEF9FEF90937A068093790682E0A8
:102220008093C1068093C20687EC96E09093C40623
:102230008093C3061092C6061092C50680E092E015
:102240009093BE068093BD0680E88093C70681E820
:102250008093C8060E945204FC0181819091C106BE
:10226000482F490F5527551F483051059CF5A2812D
:10227000B381109709F52DEB36E03383228320815B
:102280002093BF068093C0068091C206820F808390
:102290002091C306A22FB091C4068A2F821B8917F2
:1022A000C8F481813D91C82FD0E0C75DDE4F3883EF
:1022B0008F5F8183F2CFD90118962D913C911997A8
:1022C00021153105C1F72DEB36E019963C932E937D
:1022D0001897D5CF6DE089EC96E00E94A01069E0D8
:1022E0008AED96E00E94A01065E08BEE96E00E94D9
:1022F000A01063E08CEF96E00E94A0106AE08DE0F1
:1023000097E00E94A01066E08EE197E00E94A01086
:102310006BE08FE297E0DF91CF910C94A010CF9308
:10232000DF93CDB7DEB7C355D1090FB6F894DEBF42
:102330000FBECDBF789484B5826084BD84B58160C2
:1023400084BD85B5826085BD85B5816085BD809180
:102350006E00816080936E001092810080918100F8
:1023600082608093810080918100816080938100F0
:1023700080918000816080938000809191008260D4
:102380008093910080919100816080939100809171
:1023900090008160809390008091C1008460809360
:1023A000C1008091C10082608093C1008091C10012
:1023B00081608093C1008091C30081608093C300DD
:1023C0008091C00082608093C0008091C2008160D3
:1023D0008093C20080917A00846080937A0080911B
:1023E0007A00826080937A0080917A008160809385
:1023F0007A0080917A00806880937A0010924E056E
:1024000010920305109202058091D700816080939D
:10241000D70080EA8093D80089B5806189BD89B5ED
:10242000826089BD09B400FEFDCF0E94B202809196
:10243000D8008F7C80618093D8008091E000807FFD
:102440008093E0008091E1008E7E8093E1008DE03A
:102450008093E200559A209A84B7877F84BF0FB695
:10246000F894A89580916000886180936000109234
:1024700060000FBE80E830E020E00FB6F894809353
:102480006100209361000FBE8FEF9FEF90937A065B
:1024900080937906E091E005F091E10582E0808388
:1024A000E091DC05F091DD051082E091DE05F09110
:1024B000DF058FE380831092E805E091E405F09159
:1024C000E50586E08083E091E205F091E3058081F7
:1024D00080618083E091E205F091E305808188606E
:1024E0008083E091E205F091E3058081806880833C
:1024F000E091E205F091E30580818F7D808349ECD6
:10250000E42E46E0F42E5FE2C52E57E0D52E87017B
:1025100046E950E068ECC8010E943107D8011996DD
:102520008D919C91892B19F00E94AC07F7CF0F5E1B
:102530001F4FC016D10661F707EA10E0A80160E05E
:10254000C7010E943107F70181859285892B09F027
:102550007DC1F1E1EF0EF11C0F5E1F4F0D3021E048
:10256000120761F7ECEEF1E02491EDECF1E08491DB
:102570008823C9F090E0880F991FFC01E155FE4FB8
:1025800045915491FC01E354FE4FA591B4919FB73E
:10259000F894FA013081822F809583238083EC9117
:1025A000E22BEC939FBF0E94260C83E499E090936A
:1025B0000F0180930E01809169008C608093690007
:1025C000E99A10922F0510922E050E94CA0260937C
:1025D0002401709325018093260190932701809117
:1025E00043058A3008F4B7C0809143058A3009F06A
:1025F000B2C08E010F5F1F4F22242394312CF1E0D3
:102600002896FFAF2897812C912C5401412C512CF6
:10261000320120EA36E841E050E02F962CAF3DAF82
:102620004EAF5FAF2F9727961CAE1DAE1EAE1FAEEE
:1026300027973FB760963FAF6097F894F101EE0F90
:10264000FF1FEE0FFF1FEC5FFA4F80819181A28187
:10265000B38164968CAF9DAFAEAFBFAF6497C090AF
:102660003F05D0904005F12CE12CC114D104E104C8
:10267000F10441F00E94BD19A70196010E948B1B35
:102680006B017C0164962CAD3DAD4EAD5FAD6497A2
:10269000C20ED31EE41EF51ED801CD92DD92ED923E
:1026A000FC9213976096BFAD6097BFBFF801608141
:1026B000718182819381603AF6E87F07F1E08F07AC
:1026C000910518F428961FAE289727962CAD3DAD9E
:1026D0004EAD5FAD2797261737074807590730F4E7
:1026E00027966CAF7DAF8EAF9FAF27972F962CADFF
:1026F0003DAD4EAD5FAD2F97621773078407950709
:1027000030F42F966CAF7DAF8EAF9FAF2F97460EF4
:10271000571E681E791E9B01AC010E94C41E0E94B8
:10272000561A9B01AC01C501B4010E94261C4B0145
:102730005C013FEF231A330A0C5F1F4F4AE0241657
:10274000310409F076CF28965FAD2897552309F418
:1027500080C01092430510E001E128E0B22E809184
:102760002801181708F0C1C1E12EF12C670194E08F
:10277000CC0CDD1C9A95E1F7F601E05BFA4F848101
:102780009581892B09F460C04681578160857185E8
:102790008091240190912501A0912601B0912701FB
:1027A00084179507A607B70708F44EC09280668580
:1027B000778530E020E0492D80E990E00E9479089B
:1027C000A0904F058091C0068F5F0E940F04811179
:1027D00010C0B9828A2D80688A839B821C82809176
:1027E000C00644E050E0BE016F5F7F4F8F5F0E94E4
:1027F00079038091C0068F5F0E94D702F601E05BEB
:10280000FA4F1582148280912301813051F4109F78
:10281000C001112441EE50E060E08753994F0E94BF
:10282000310780912301823079F4FFEFEF1AFF0A1C
:102830000E9DC0010F9D900D112441EE50E060E00F
:102840008753994F0E9431071F5F89CF0E94AC07C1
:102850007ACEC301B20129E030E040E050E00E94AE
:10286000F41B2B962CAF3DAF4EAF5FAF2B9720E004
:1028700030E040E151E4C501B4010E94921C6B01BB
:102880007C012B962CAD3DAD4EAD5FAD2B97CA01B3
:10289000B9010E94C41E0E94561A9B01AC01C701D7
:1028A000B6010E94251C20E030E040E05FE30E947A
:1028B0003F1D4B015C0120E030E040E85FE30E94F7
:1028C000511A87FF06C0812C912CA0E8AA2EAFE3F5
:1028D000BA2E2796CCACDDACEEACFFAC27972F968A
:1028E0008CAD9DADAEADBFAD2F97C81AD90AEA0A1F
:1028F000FB0AC701B6010E94561A2B013C01209128
:102900001601309117014091180150911901C5012C
:10291000B4010E94B71A9B01AC01C301B2010E942D
:102920003A1D18160CF015CF40901D0150901E0155
:10293000712C612CEFE78E2E912CA12CB12CC701AC
:10294000B601A50194010E94F41B27966CAF7DAFE0
:102950008EAF9FAF279720911B0130911C0150E053
:1029600040E0241935094609570961507109810968
:1029700091090E94C41EFEE7CF2ED12CE12CF12C30
:10298000A70196010E948B1B89019A01040D151D58
:10299000261D371D0A561F4FC80164E670E00E94CD
:1029A000D41E1C01A3E02A0E311C0E94BD19809187
:1029B0002001482E512C712C612C2B966CAD7DADD5
:1029C0008EAD9FAD2B97A50194010E94F41B9B0136
:1029D000AC01215031094109510960911F0170E09A
:1029E00090E080E064197509860997090E94C41E69
:1029F000A70196010E948B1BDA01C901840D951D68
:102A0000A61DB71DE0914105F0E06CE070E00E946A
:102A1000D41E6B01409142052AE1429FD00111244E
:102A2000A45CBE4FAD90BC9061E03DE0439FA0012F
:102A30001124262F30E02A153B058CF4240F351F76
:102A4000220F331F245C3E4FD901ED90FC908E1570
:102A50009F0541F08E159F052CF06F5FEACF36E0A1
:102A6000E32EF12C20914F0530E0A801110F660BE9
:102A7000770BACE0AC9DC001AD9D900D11248E0D87
:102A80009F1D8E0F9F1F0E9495088091210190E04D
:102A900090932D0580932C052596EEADFFAD2597DF
:102AA000F0933105E0933005C101330CAA0BBB0B49
:102AB0008093360590933705A0933805B093390578
:102AC00040912401509125016091260170912701C8
:102AD000840F951FA61FB71F80933205909333056F
:102AE000A0933405B093350534CE80912E05909196
:102AF0002F050091300510913105081B190B09F4C1
:102B00007EC0C0902401D0902501E0902601F09075
:102B10002701409132055091330560913405709141
:102B200035054C155D056E057F0508F068C04091C0
:102B300036055091370560913805709139054C0D77
:102B40005D1D6E1D7F1D40933205509333056093CC
:102B5000340570933505101611060CF0E7C0019688
:102B600090932F0580932E05F0902E05D0902F0581
:102B7000C0902C0560914F0570E02F2D3D2D4C2D00
:102B800080EB90E00E947908E0904F058091C006AC
:102B90008F5F0E940F04811111C08BE089838E2DFD
:102BA000806B8A83CB82FC828091C00644E050E037
:102BB000BE016F5F7F4F8F5F0E9479038091C006D7
:102BC0008F5F0E94D7022F2D3D2DA1E0BFEF0E9405
:102BD000EE1E2FE730E040E050E00E948B1BCA0160
:102BE000B90161507F4F8F4F9F4F45E050E0101665
:102BF00011060CF09DC086E090E00E945708E7EABD
:102C0000F1E0E49190917B008E2F880F880F807205
:102C10009F7D892B80937B00E770E064E0937C00CC
:102C200080917A00806480937A0080917A0086FD9A
:102C3000FCCF8091780000917900102F082F8091AF
:102C40003C0590913D058017910759F1B801012E7F
:102C5000000C880B990B0E94581A20E030E040E8E5
:102C60005FE30E94251C25E83BEE49E950E40E9401
:102C7000B71A20E030EC4FE754E40E94921C2DEC90
:102C80003CEC4CEC5DE30E94261C609316017093B3
:102C90001701809318019093190110933D0500933B
:102CA0003C050E94AC078FE7B82E04EC19E08DE6D6
:102CB00096E00E941D06892B09F406C31EAE1DAEC8
:102CC00021961FAE1EAE219723961FAE1EAE2397F0
:102CD00050E040E06AE072E0CE01CD960E94940A96
:102CE0000E94C70597FD29C089831A822396EEACFE
:102CF000FFAC23972FEFE21AF20AB701CE01CD966F
:102D00000E946C0A882361F32DAD3EAD23968EADF3
:102D10009FAD2397BE016F5F7F4F820F931F0E946D
:102D200005212396FFAEEEAE2397DACF019718CF99
:102D30008FE297E00E94310762CFBE01635C7F4F54
:102D4000CE0101960E94BF0A50E040E0BE016F5FD5
:102D50007F4FCE01C7960E94D90ACE0101960E94EC
:102D60008C09BE01635C7F4FCE0101960E94BF0AB1
:102D700041E050E0BE016F5F7F4FCE01C1960E94DF
:102D8000D90ACE0101960E948C09BE01635C7F4F77
:102D9000CE0101960E94BF0A42E050E0BE016F5F83
:102DA0007F4FCE018B960E94D90ACE0101960E94D8
:102DB0008C09BE01635C7F4FCE0101960E94BF0A61
:102DC00043E050E0BE016F5F7F4FCE0185960E94C9
:102DD000D90ACE0101960E948C096CEB74E0CE01F9
:102DE000C7960E94570A882309F4A1C160E172E0E6
:102DF000CE01C1960E94570A8823A1F1CE018B967D
:102E00000E944C0A6B01CB0101978436910550F565
:102E1000B6010D2C000C880B990B0E94581A25E85E
:102E20003BEE49E950EC0E94B71A20E030E048EC54
:102E300052E40E94921C28EB3EE14DE950E40E94CE
:102E4000261C6093160170931701809318019093CC
:102E50001901C0921A0186E192E00E94E509C601BB
:102E60000E941A0A60E372E0CE01C1960E94570ADE
:102E70008823A1F0CE018B960E944C0A6B01CB01F6
:102E80000197409758F48FEF8C0D80934F0588E39E
:102E900092E00E94E509C6010E941A0A6EE472E0FF
:102EA000CE01C1960E94570A882389F0CE018B96E5
:102EB0000E944C0A6B016630710548F4609342052C
:102EC00084E592E00E94E509C6010E941A0A68E6BC
:102ED00072E0CE01C1960E94570A882389F0CE0184
:102EE0008B960E944C0A6B016930710548F460931F
:102EF00028018DE692E00E94E509C6010E941A0AA7
:102F000065E872E0CE01C1960E94570A882389F0D5
:102F1000CE018B960E944C0A6B016C30710548F40F
:102F2000609341058AE892E00E94E509C6010E948B
:102F30001A0A62EA72E0CE01C1960E94570A8823FB
:102F400091F0CE018B960E944C0A6B0183E0C8166B
:102F5000D10448F4C09223018BEA92E00E94E50973
:102F6000C6010E941A0A62EC72E0CE01C1960E946C
:102F7000570A882399F0CE018B960E944C0A6B0168
:102F80009FEFC916D10409F048F4C09222018DECDC
:102F900092E00E94E509C6010E941A0A66EE72E0FC
:102FA000CE01C1960E94570A882389F0CE018B96E4
:102FB0000E944C0A6B016038710548F4609321014E
:102FC00084EF92E00E94E509C6010E941A0A60E1BE
:102FD00073E0CE01C1960E94570A882389F0CE0182
:102FE0008B960E944C0A6B016038710548F460931F
:102FF000200188E193E00E94E509C6010E941A0AB7
:103000006EE273E0CE01C1960E94570A882389F0D0
:10301000CE018B960E944C0A6B016038710548F412
:1030200060931F0186E393E00E94E509C6010E94B8
:103030001A0A6CE473E0CE01C1960E94570A8823F5
:1030400091F0CE018B960E944C0A6B0177FD0BC06C
:10305000D0921E01C0921D0187E593E00E94E50910
:10306000C6010E941A0A60E773E0CE01C1960E9471
:10307000570A882391F0CE018B960E944C0A6B016F
:1030800077FD0BC0D0921C01C0921B018BE793E02F
:103090000E94E509C6010E941A0A64E973E0CE01A4
:1030A000C1960E94570A8823A1F0CE018B960E94F8
:1030B0004C0A6B016F3F710509F058F4709340059D
:1030C00060933F058BE993E00E94E509C6010E94E9
:1030D0001A0A60EB73E0CE01C1960E94570A88235A
:1030E00089F0CE018B960E944C0A6B016430710509
:1030F00048F460933E058EEB93E00E94E509C6011B
:103100000E941A0ACE0185960E948C09CE018B96E8
:103110000E948C09CE01C1960E948C09CE01C796EF
:103120000E948C09CE01CD960E948C09C0CD69ED1C
:1031300073E0CE01C7960E94570A882309F473C032
:103140008EED93E00E94E70986EF93E00E94E50987
:10315000809142050E94F5098EEF93E00E94E509F7
:10316000809122010E94F5098BE094E00E94E5091C
:1031700080914F050E94F50985E194E00E94E509E0
:1031800080911A010E94F50983E294E00E94E5090A
:10319000809128010E94F5098AE294E00E94E509E5
:1031A000809141050E94F50981E394E00E94E509C0
:1031B000809121010E94F50986E394E00E94E509CF
:1031C000809120010E94F50980E494E00E94E509C5
:1031D00080911F010E94F5098AE494E00E94E509AC
:1031E00080911D0190911E010E94080A87E594E0DC
:1031F0000E94E50980911B0190911C010E94080A20
:1032000084E694E00E94E50980913F059091400595
:103210000E94080A8DE694E00E94E50980913E052F
:103220000E94F5096FCF6CE774E0CE01C7960E944B
:10323000570A882339F00E94C40B81E894E00E9469
:10324000E70960CF67E974E0CE01C7960E94570A8C
:10325000882329F00E94260C8CE994E0F0CF62EBE1
:1032600074E0CE01C7960E94570A882309F44ACF1A
:1032700010924205B092220110924F0585E0809392
:10328000280181E08093410581E58093210184E25A
:103290008093200180E680931F0144E650E0509324
:1032A0001E0140931D0110931C0100931B011092FD
:1032B000400510923F0510923E050E94C40B0E94EB
:1032C000260C80EC94E0BBCF80E090E0892B09F4E1
:1032D0007CC90E94D404882309F477C90E940000A5
:1032E00074C98F929F92AF92BF92CF92DF92EF926A
:1032F000FF92CF93DF93EC01688179818A819B8172
:10330000611571058105910521F464E279ED8BE584
:1033100097E02DE133EF41E050E00E948B1B490123
:103320005A019B01AC01A7EAB1E40E94AA1B6B0100
:103330007C01ACEEB4EFA50194010E94B81BC60E4F
:10334000D71EE81EF91EF7FE06C081E0C81AD10894
:10335000E10880E8F80AC882D982EA82FB82C701C4
:10336000B6019F77DF91CF91FF90EF90DF90CF90E4
:10337000BF90AF909F908F9008958F929F92AF9241
:10338000BF92CF92DF92EF92FF92609130017091E5
:1033900031018091320190913301611571058105F0
:1033A000910521F464E279ED8BE597E02DE133EFAF
:1033B00041E050E00E948B1B49015A019B01AC0186
:1033C000A7EAB1E40E94AA1B6B017C01ACEEB4EF4A
:1033D000A50194010E94B81BC60ED71EE81EF91E57
:1033E000F7FE06C081E0C81AD108E10880E8F80AB3
:1033F000C0923001D0923101E0923201F09233015B
:10340000C701B6019F77FF90EF90DF90CF90BF90FC
:10341000AF909F908F900895609330017093310129
:10342000809332019093330108951F93FC019927F3
:103430008827BC01E89411911032E9F3193010F09B
:103440001E30C8F31B3251F01D3249F4689406C097
:103450000E943C1A610F711D811D911D1191105325
:103460001A30B0F33EF490958095709561957F4F3A
:103470008F4F9F4F1F910895592F482F372F262F79
:10348000660F771F881F991F660F771F881F991F68
:10349000620F731F841F951F660F771F881F991F68
:1034A00008950E94931A08F481E00895E89409C0F1
:1034B00097FB3EF490958095709561957F4F8F4F67
:1034C0009F4F9923A9F0F92F96E9BB279395F6957D
:1034D000879577956795B795F111F8CFFAF4BB0FFB
:1034E00011F460FF1BC06F5F7F4F8F4F9F4F16C05F
:1034F000882311F096E911C0772321F09EE8872FE9
:10350000762F05C0662371F096E8862F70E060E0A4
:103510002AF09A95660F771F881FDAF7880F96951D
:10352000879597F90895990F0008550FAA0BE0E8C1
:10353000FEEF16161706E807F907C0F01216130675
:10354000E407F50798F0621B730B840B950B39F4B5
:103550000A2661F0232B242B252B21F408950A261B
:1035600009F4A140A6958FEF811D811D08950E9449
:10357000CA1A0C943B1B0E942D1B38F00E94341B6E
:1035800020F0952311F00C94241B0C942A1B112479
:103590000C946F1B0E944C1B70F3959FC1F3950F09
:1035A00050E0551F629FF001729FBB27F00DB11DC7
:1035B000639FAA27F00DB11DAA1F649F6627B00D57
:1035C000A11D661F829F2227B00DA11D621F739F40
:1035D000B00DA11D621F839FA00D611D221F749F4E
:1035E0003327A00D611D231F849F600D211D822F95
:1035F000762F6A2F11249F5750409AF0F1F08823BC
:103600004AF0EE0FFF1FBB1F661F771F881F9150E8
:103610005040A9F79E3F510580F00C94241B0C9458
:103620006F1B5F3FE4F3983ED4F3869577956795DB
:10363000B795F795E7959F5FC1F7FE2B880F911D12
:103640009695879597F9089597F99F6780E870E0B8
:1036500060E008959FEF80EC089500240A94161608
:10366000170618060906089500240A941216130670
:10367000140605060895092E0394000C11F48823FE
:1036800052F0BB0F40F4BF2B11F460FF04C06F5F1A
:103690007F4F8F4F9F4F089557FD9058440F551FF0
:1036A00059F05F3F71F04795880F97FB991F61F0C4
:1036B0009F3F79F087950895121613061406551F3B
:1036C000F2CF4695F1DF08C0161617061806991FA7
:1036D000F1CF86957105610508940895E894BB279C
:1036E00066277727CB0197F90895F999FECF92BD08
:1036F00081BDF89A992780B50895262FF999FECFB4
:103700001FBA92BD81BD20BD0FB6F894FA9AF99AFE
:103710000FBE01960895052E97FB1EF400940E949B
:10372000A21B57FD07D00E94F41B07FC03D04EF4E8
:103730000C94A21B50954095309521953F4F4F4FCB
:103740005F4F089590958095709561957F4F8F4F4D
:103750009F4F08950E94161CA59F900DB49F900D39
:10376000A49F800D911D11240895B7FF0C94AA1BEE
:103770000E94AA1B821B930B08952F923F924F9297
:103780005F926F927F928F929F92AF92BF92CF92F1
:10379000DF92EF92FF920F931F93CF93DF93CDB7FA
:1037A000DEB7CA1BDB0B0FB6F894DEBF0FBECDBF72
:1037B00009942A88398848885F846E847D848C8443
:1037C0009B84AA84B984C884DF80EE80FD800C814C
:1037D0001B81AA81B981CE0FD11D0FB6F894DEBF2F
:1037E0000FBECDBFED010895A1E21A2EAA1BBB1B8F
:1037F000FD010DC0AA1FBB1FEE1FFF1FA217B307BD
:10380000E407F50720F0A21BB30BE40BF50B661FD2
:10381000771F881F991F1A9469F760957095809596
:1038200090959B01AC01BD01CF010895A29FB0010D
:10383000B39FC001A39F700D811D1124911DB29FE4
:10384000700D811D1124911D08955058BB27AA2782
:103850000E943D1C0C943B1B0E942D1B38F00E94C3
:10386000341B20F039F49F3F19F426F40C942A1BE2
:103870000EF4E095E7FB0C94241BE92F0E944C1BEF
:1038800058F3BA17620773078407950720F079F495
:10389000A6F50C946E1B0EF4E0950B2EBA2FA02DFE
:1038A0000B01B90190010C01CA01A0011124FF27ED
:1038B000591B99F0593F50F4503E68F11A16F040E8
:1038C000A22F232F342F4427585FF3CF46953795E7
:1038D0002795A795F0405395C9F77EF41F16BA0BAC
:1038E000620B730B840BBAF09150A1F0FF0FBB1F5A
:1038F000661F771F881FC2F70EC0BA0F621F731FA3
:10390000841F48F4879577956795B795F7959E3FFF
:1039100008F0B0CF9395880F08F09927EE0F979590
:10392000879508950E94A61C0C943B1B0E94341B93
:1039300058F00E942D1B40F029F45F3F29F00C94B1
:10394000241B51110C946F1B0C942A1B0E944C1BBE
:1039500068F39923B1F3552391F3951B550BBB27BE
:10396000AA2762177307840738F09F5F5F4F220F03
:10397000331F441FAA1FA9F335D00E2E3AF0E0E8FA
:1039800032D091505040E695001CCAF72BD0FE2F44
:1039900029D0660F771F881FBB1F261737074807D8
:1039A000AB07B0E809F0BB0B802DBF01FF27935890
:1039B0005F4F3AF09E3F510578F00C94241B0C9415
:1039C0006F1B5F3FE4F3983ED4F386957795679538
:1039D000B795F7959F5FC9F7880F911D96958795C5
:1039E00097F90895E1E0660F771F881FBB1F6217E4
:1039F00073078407BA0720F0621B730B840BBA0BA2
:103A0000EE1F88F7E09508950E940B1D6894B11190
:103A10000C946F1B08950E94541B88F09F5798F0D8
:103A2000B92F9927B751B0F0E1F0660F771F881FC3
:103A3000991F1AF0BA95C9F714C0B13091F00E94DD
:103A40006E1BB1E008950C946E1B672F782F8827AA
:103A5000B85F39F0B93FCCF3869577956795B39504
:103A6000D9F73EF490958095709561957F4F8F4F73
:103A70009F4F08950E94931A08F48FEF0895FA015A
:103A8000EE0FFF1F309621053105A1F1611571057B
:103A900061F48038BFE39B0749F168949038810551
:103AA00061F08038BFEF9B0741F099234AF5FF3F53
:103AB000E1053105210519F1E8940894E795D9014C
:103AC000AA2329F4AB2FBE2FF85FD0F310C0FF5FFD
:103AD00070F4A695E0F7F73950F019F0FF3A38F492
:103AE0009F779F930DD00F9007FC9058089546F054
:103AF0000C942A1B60E070E080E89FE308954FE794
:103B00009F775F934F933F932F930E943A1E2F917D
:103B10003F914F915F910E94B71A0C94971D29F421
:103B200016F00C94241B0C946E1B0C942A1B0E9400
:103B3000541BA8F39638A0F707F80F92E8942BE3EC
:103B40003AEA48EB5FE70E94CD1A0F920F920F926C
:103B50004DB75EB70F920E94821EECEAF0E00E9421
:103B6000C91D4F915F91EF91FF91E595EE1FFF1FEA
:103B700049F0FE57E0684427EE0F441FFA95E1F73D
:103B80004195550B0E94FC1D0F9007FE0C94F01DF3
:103B90000895DF93CF931F930F93FF92EF92DF92DD
:103BA0007B018C01689406C0DA2EEF010E94CA1ACC
:103BB000FE01E894A5912591359145915591A6F383
:103BC000EF010E943D1CFE019701A801DA9469F7FC
:103BD000DF90EF90FF900F911F91CF91DF910895AB
:103BE0009B01AC0160E070E080E89FE30C94921CC4
:103BF0000C94241B0C94B61E0E94541BD8F39923DA
:103C0000C9F3940F511DA3F39150504094F059F013
:103C1000882332F0660F771F881F91505040C1F7FC
:103C20009E3F51052CF7880F911D9695879597F922
:103C300008955F3FACF0983E9CF0BB278695779542
:103C40006795B79508F4B1609395C1F7BB0F58F726
:103C500011F460FFE8CF6F5F7F4F8F4F9F4FE3CF2F
:103C60000C946F1B16F00C94B61E0C942A1B6894CF
:103C70000C94241B0E94541BA8F39923C1F3AEF3A8
:103C8000DF93CF931F930F93FF92C92FDD278823D4
:103C90002AF02197660F771F881FDAF720E030E0BF
:103CA00040E85FEB9FE3883920F0803E38F02196B2
:103CB0008F770E94261CE4EDF0E004C00E94261CD1
:103CC000E1E0F1E00E94C91D8B01BE01EC01FB2E79
:103CD0006F5771097595771F880B990B0E94581AB9
:103CE00028E132E741E35FE30E94CA1AAF2D980151
:103CF000AE01FF900F911F91CF91DF910E943D1C6B
:103D00000C943B1BFA01DC01AA0FBB1F9B01AC0109
:103D1000BF5728F4222733274427507820C0B751B3
:103D200090F4AB2F0024469537952795011CA39559
:103D3000D2F3002071F0220F331F441FB395DAF342
:103D40000ED00C94251C61307105A0E88A07B94695
:103D500030F49B01AC01662777278827907830964E
:103D600021F0208331834283538308959F3F31F0B4
:103D7000915020F4879577956795B795880F911D99
:103D80009695879597F90895DB018F939F930E94ED
:103D9000AA1BBF91AF91A29F800D911DA39F900D73
:103DA000B29F900D1124089597FB072E16F40094EE
:103DB00007D077FD09D00E94FD1E07FC05D03EF418
:103DC000909581959F4F0895709561957F4F0895C7
:103DD000EE0FFF1F0590F491E02D09940E94161C30
:103DE000332312F48A1B9B0B0C94F81E0E94161CA2
:103DF000B7FF0895821B930B0895AA1BBB1B51E1CB
:103E000007C0AA1FBB1FA617B70710F0A61BB70B4A
:103E1000881F991F5A95A9F780959095BC01CD01EF
:103E200008950F931F93CF93DF938230910510F481
:103E300082E090E0E0914207F091430730E020E01B
:103E4000B0E0A0E0309799F42115310509F44AC09B
:103E5000281B390B24303105D8F58A819B816115E7
:103E6000710589F1FB0193838283FE0111C04081BA
:103E700051810281138148175907E0F0481759070B
:103E800099F4109761F012960C93129713961C9365
:103E90003296CF01DF91CF911F910F91089500933A
:103EA000420710934307F4CF2115310551F0421713
:103EB000530738F0A901DB019A01BD01DF01F801C8
:103EC000C1CFEF01F9CF9093430780934207CDCF45
:103ED000FE01E20FF31F8193919322503109398340
:103EE0002883D7CF2091400730914107232B41F4FD
:103EF00020913601309137013093410720934007DC
:103F000020913401309135012115310541F42DB74F
:103F10003EB74091380150913901241B350BE09197
:103F20004007F0914107E217F307A0F42E1B3F0B67
:103F30002817390778F0AC014E5F5F4F241735071B
:103F400048F04E0F5F1F5093410740934007819305
:103F500091939FCFF0E0E0E09CCFCF93DF93009769
:103F6000E9F0FC01329713821282A0914207B091CE
:103F70004307ED0130E020E01097A1F4208131816A
:103F8000820F931F2091400730914107281739076E
:103F900009F061C0F0934107E0934007DF91CF91B2
:103FA0000895EA01CE17DF07E8F54A815B819E019B
:103FB00041155105B1F7E901FB83EA834991599114
:103FC000C40FD51FEC17FD0761F480819181029623
:103FD000840F951FE90199838883828193819B8354
:103FE0008A83F0E0E0E012968D919C911397009700
:103FF000B9F52D913C911197CD010296820F931F37
:1040000020914007309141072817390739F630973A
:1040100051F51092430710924207B0934107A093C5
:104020004007BCCFD383C28340815181840F951F49
:10403000C817D90761F44E5F5F4F88819981480F97
:10404000591F518340838A819B81938382832115E9
:10405000310509F0B0CFF0934307E09342079ECFBC
:10406000FD01DC01C0CF13821282D7CFB0E0A0E007
:10407000ECE3F0E20C94BF1B8C01009751F4CB01F0
:104080000E94111F8C01C801CDB7DEB7E0E10C948E
:10409000DB1BFC01E60FF71F9C0122503109E217E0
:1040A000F30708F49DC0D901CD91DC911197C61793
:1040B000D70798F0C530D10530F3CE0104978617A5
:1040C000970708F3C61BD70B2297C193D1936D9323
:1040D0007C93CF010E94AD1FD6CF5B01AC1ABD0A05
:1040E0004C018C0E9D1EA0914207B0914307512CAC
:1040F000412CF12CE12C109731F5809140079091E3
:1041000041078815990509F05CC04616570608F066
:1041100058C08091340190913501009741F48DB7DA
:104120009EB74091380150913901841B950BE817D7
:10413000F90708F055C0F0934107E0934007F901F3
:1041400071836083A0CF8D919C91119712966C9092
:10415000129713967C901397A815B90559F56C0121
:1041600042E0C40ED11CCA14DB0420F1AC014A1990
:104170005B09DA011296159780F06282738251838F
:104180004083D9016D937C93E114F10471F0D70160
:104190001396FC93EE93129776CF22968C0F9D1F69
:1041A000F90191838083F301EFCFF0934307E0930C
:1041B000420769CF4816590608F42C017D01D30146
:1041C0009ACFCB010E94111F7C01009749F0AE01EC
:1041D000B8010E94F320C8010E94AD1F870153CF90
:1041E00010E000E050CFFB01DC0102C001900D9215
:1041F00041505040D8F70895FB01DC018D910190AA
:1042000080190110D9F3990B0895FB01DC0101908D
:0C4210000D920020E1F70895F894FFCF14
:10421C00FFFFFFFF00E1000000000000D602D60205
:10422C00D602D602D6029A99D93F05C40964006019
:10423C0024507F01010000000500C18081000000B6
:10424C00010000000000440780000C000C0000007E
:10425C00010002000300040005000600070008002E
:10426C0009000A000B000700000002000400050012
:10427C00070009000B000000000000000000000017
:10428C0007000000010001000400050008000A00FE
:10429C000000000000000000000007000000020009
:1042AC0003000500070008000A00000000000000E1
:1042BC0000000000050000000200040007000900D7
:1042CC0000000000000000000000000000000500DD
:1042DC0000000300050007000A00000000000000B9
:1042EC00000000000000000000000000090525048B
:1042FC0097045505C804A604BA04000000008B05F9
:10430C007505A405A1051D06A905F9050000000009
:10431C00300632062D067C0B0D0A004D494449002F
:10432C0073656E736500494E464F3A207365742071
:10433C0073656E736974697669747920746F200083
:10434C006368616E6E656C00494E464F3A2073652A
:10435C0074206368616E6E656C20746F20007363EB
:10436C00616C6500494E464F3A2073657420736347
:10437C00616C6520746F2000706F6C7900494E463B
:10438C004F3A2073657420706F6C7970686F6E791A
:10439C0020746F2000726F6F7400494E464F3A20A4
:1043AC0073657420726F6F74206E6F746520746FF8
:1043BC0020006E6F74654C45447300494E464F3A6D
:1043CC0020736574206E6F74654C45447320746F54
:1043DC0020006272696768746E65737300494E469B
:1043EC004F3A20736574206272696768746E6573E6
:1043FC007320746F2000636F6E74726F6C4E756DEA
:10440C0062657200494E464F3A2073657420636FA3
:10441C006E74726F6C4E756D62657220746F2000D5
:10442C006E6F74654D696E00494E464F3A20736548
:10443C0074206E6F74654D696E20746F20006E6F02
:10444C0074654D617800494E464F3A20736574206F
:10445C006E6F74654D617820746F20006E6F74659B
:10446C004475724D696E00494E464F3A207365741F
:10447C00206E6F74654475724D696E20746F2000E8
:10448C006E6F74654475724D617800494E464F3AB3
:10449C0020736574206E6F74654475724D6178205D
:1044AC00746F200072616E646F6D00494E464F3A16
:1044BC00207365742072616E646F6D20746F2000C0
:1044CC006B6E6F622D66756E6374696F6E00494E0C
:1044DC00464F3A20736574206B6E6F6246756E633F
:1044EC0074696F6E20746F200073686F7700494E8B
:1044FC00464F3A204163746976652073657474691C
:10450C006E67733A20007363616C653A20006272C7
:10451C00697467686E6573733A20006368616E6EC8
:10452C00656C3A200073656E736974697669747989
:10453C003A2000706F6C793A2000726F6F743A20D9
:10454C000063633A20006E6F74654D696E3A20000B
:10455C006E6F74654D61783A20006E6F74654475AA
:10456C00724D696E3A20006E6F74654475724D61C0
:10457C00783A200072616E646F6D3A20006B6E6F3A
:10458C006246756E6374696F6E3A2000736176656E
:10459C0000494E464F3A2053657474696E67732018
:1045AC0073746F726564006C6F616400494E464FA2
:1045BC003A2053657474696E6773206C6F6164651F
:1045CC006400666163746F72792D72657365740033
:1045DC00494E464F3A2053657474696E6773207266
:1045EC006573746F72656420746F20666163746F99
:0C45FC0072792064656661756C74730050
:2070000055C000006EC000006CC000006AC0000068C0000066C0000064C0000062C0000043
:2070200060C000005EC00000F2C400005AC0000058C0000056C0000054C0000052C00000EE
:2070400050C0000078C000004CC000004AC0000048C0000046C0000044C0000042C00000BE
:2070600040C000003EC000003CC000003AC0000038C0000036C0000034C0000032C0000048
:2070800030C000002EC000002CC000002AC0000028C0000026C0000024C0000022C00000A8
:2070A00020C000001EC000001CC0000011241FBECFEFDAE0DEBFCDBF11E0A0E0B1E0E2E3BC
:2070C000FFE702C005900D92A83AB107D9F711E0A8EAB1E001C01D92AE3BB107E1F78FD30B
:2070E00026C78ECFF89410926F0010928100109285001092840081E085BF15BE47985D9AEB
:20710000289A0C94000008952091B2013091B3012F5F3F4F3093B3012093B201932F37FFA6
:2071200003C08EEF831B982F990F921710F447980895479A08951F920F920FB60F9211246E
:207140002F938F939F93EF93FF9310928500109284008091A8019091A901009741F00197D3
:207160009093A9018093A801892B09F45D9A8091AA019091AB01009741F001979093AB0126
:207180008093AA01892B09F4289AE0E0F0E0859194918F5F9F4F49F08091AC019091AD0151
:2071A00001969093AD018093AC01FF91EF919F918F912F910F900FBE0F901F90189584E0BC
:2071C0008093E9000DC08091E8008B778093E80003C08EB3882351F08091E80082FFF9CFBE
:2071E0008091E80085FFEFCF8091F1000895982F83E08093E9008091E80085FD0DC0809136
:20720000E8008E778093E80003C08EB3882369F08091E80080FFF9CF9093F1005D9884E6CB
:2072200090E09093A9018093A80108954F925F926F927F928F929F92AF92BF92CF92DF921E
:20724000EF92FF920F931F93CF93DF9384E08093E9008091E80082FF57C2289884E690E067
:207260009093AB018093AA01AADF182F853481F48CE49DE19093AD018093AC0107B600FC4B
:20728000FDCFF999FECF81E180935700E89503C0843519F494DF8DE00DC28C34E1F38035F9
:2072A000D1F3843721F484E4A2DF80E003C2813611F489E5FFC18134B1F481DF182F7FDFE3
:2072C00090E0880F991FAA2797FDA095BA2F312F330F20E0442737FD4095542F822B932B68
:2072E000A42BB52BB8C1803711F483E5E3C1833549F4C0E0D1E089917ADF21E0C730D20714
:20730000D1F7D9C1863521F481E371DF80E3D2C1833731F487E86BDF85E969DF8EE1CAC149
:207320008536B9F4E0E0F0E093E085E090935700E89507B600FCFDCF80935700E89507B65D
:2073400000FCFDCFE058FF4FA0E7E030FA0771F7A2CF823739F4E1E0F0E089E08093570024
:207360008491A8C1863439F4E0E0F0E089E08093570084919FC18E3439F4E3E0F0E089E0E5
:2073800080935700849196C1813539F4E2E0F0E089E08093570084918DC1823631F489E521
:2073A00026DF80E024DF80E885C1823419F0873609F0E5C01092AD011092AC0100DF082FE8
:2073C000FEDEF82EFCDE682E8554823008F071C1902F80E0CF2DD0E0C82BD92B10926F00B3
:2073E000173609F04BC081E180935700E895DD24CC24C3943FC0E090AE01F090AF010091CC
:20740000B0011091B101B6E46B16D9F4ED2DF0E0EE29FF29E4918E2FEADEDD2081F082E08D
:2074200090E0A0E0B0E0E80EF91E0A1F1B1FE092AE01F092AF010093B0011093B101DC2470
:2074400018C0D801C701B695A7959795879559D5CEDE82E090E0A0E0B0E0E80EF91E0A1FF2
:207460001B1FE092AE01F092AF010093B0011093B1012197209709F0BECF7DC08090AE01F5
:207480009090AF01A090B001B090B10196E4691609F05DC083E0F40180935700E89507B63E
:2074A00000FCFDCF54C0F6E46F1661F5772031F1E090AE01F090AF010091B0011091B1019E
:2074C0007EDED82ECC24852D90E08C299D29F7010C0140925700E895112482E090E0A0E08B
:2074E000B0E0E80EF91E0A1F1B1FE092AE01F092AF010093B0011093B10102C060DE582E1A
:20750000742423C0E090AE01F090AF010091B0011091B10116950795F794E79450DE682FFA
:20752000C701F7D48091AE019091AF01A091B001B091B1010296A11DB11D8093AE01909349
:20754000AF01A093B001B093B101219704C05524772444244394209709F0A5CF96E46916B6
:2075600041F485E0F40180935700E89507B600FCFDCF8DE03CDE82E080936F009CC0833492
:2075800071F40091AE011091AF0119DE90E021E0F8010C0120935700E89511247CCE8336C8
:2075A00019F5E090AE01F090AF010091B0011091B10105DEF701E16090E021E00C0120938C
:2075C0005700E895112482E090E0A0E0B0E0E80EF91E0A1F1B1FE092AE01F092AF0100936A
:2075E000B0011093B10157CE8D3661F4E091AE01F091AF0185E080935700E89507B600FCF2
:20760000FDCF49CE823551F4E091AE01F091AF0105911491812FEBDD802F4CC0843421F5FE
:20762000E090AE01F090AF010091B0011091B10116950795F794E794C2DD682FC70169D4DE
:207640008091AE019091AF01A091B001B091B1010296A11DB11D8093AE019093AF01A093D8
:20766000B001B093B10117CE843609F5E090AE01F090AF010091B0011091B101D801C70142
:20768000B695A795979587953CD4B1DD82E090E0A0E0B0E0E80EF91E0A1F1B1FE092AE010A
:2076A000F092AF010093B0011093B10104C08B3111F08FE39CDD83E08093E9009091E8002B
:2076C0008091E8008E778093E80095FF04C010C08EB38823C9F08091E80080FFF9CF809193
:2076E000E8008E778093E80003C08EB3882361F08091E80080FFF9CF84E08093E9008091F1
:20770000E8008B778093E800DF91CF911F910F91FF90EF90DF90CF90BF90AF909F908F90AC
:207720007F906F905F904F9008959091B601892F8F77813249F58091B7018032A1F081328A
:2077400019F5913A09F58091E800877F8093E8008DE091E067E070E00BD28091E8008B770B
:207760008093E8000895913279F48091E800877F8093E8008DE091E067E070E05DD2809192
:20778000E8008E778093E800089582E061EC42E0B5D083E061E842E1B1D084E060E842E1EF
:2077A000ADC084B7877F84BF88E10FB6F89480936000109260000FBE20E880E090E00FB63F
:2077C000F89420936100809361000FBE81E085BF92E095BF3F9A209A559AE1E6F0E02083A1
:2077E000108247985D9A289A109289008AEF8093880090936F0083E080938100F0C0409116
:20780000000850910108109201081092000894B714BE88E10FB6F8948093600010926000D5
:207820000FBE292F30E0F901E270F07091FD18C090FF05C0859194918F5F9F4F81F423FFFF
:207840000FC08091090190910A014817590741F0E0E0F0E0859194918F5F9F4F09F042DC64
:20786000A0DF78941092AD011092AC010CC0DEDC36D38091AC019091AD0181549F4110F00D
:207880001092140141DC80911401882381F78091E00081608093E00025DC80E090E0089598
:2078A000FA01923049F0933061F09130F9F485E191E022E130E01EC087E291E02EE330E04D
:2078C00019C0882329F485E691E024E030E012C0813029F489E691E022E230E00BC0823006
:2078E00029F48DE891E028E130E004C080E090E020E030E091838083C90108958093E9004E
:207900008091EB0081608093EB001092ED006093EC004093ED008091EE00881F8827881F62
:2079200008958091B60188238CF403C08EB38823B1F08091E80082FFF9CF8091E8008B772A
:207940008093E80008958EB3882349F08091E80080FFF9CF8091E8008E778093E800089594
:20796000EF92FF920F931F9345D04CD008ED10E0F80180818F77808380818068808380819B
:207980008F7D808319BC1EBA1092B40180EEE82EF12CF70180818B7F8083F8018081816052
:2079A000808380E060E042E0A9DFE1EEF0E080818E7F8083E2EEF0E0808181608083808144
:2079C00088608083F70180818E7F8083F8018081806180831F910F91FF90EF900895E7ED06
:2079E000F0E08081816080838AE482BF81E08093B501B6CFE8EDF0E080818E7F808310921C
:207A0000E20008951092DA001092E10008951F920F920FB60F9211242F933F934F935F93F6
:207A20006F937F938F939F93AF93BF93EF93FF938091DA0080FF1BC08091D80080FF17C0B2
:207A40008091DA008E7F8093DA008091D90080FF0BC080E189BD82E189BD09B400FEFDCF36
:207A600081E08EBB3BD203C019BC1EBA37D28091E10080FF17C08091E20080FF13C0809138
:207A8000E2008E7F8093E2008091E20080618093E2008091D80080628093D80019BC85E049
:207AA0008EBB1CD28091E10084FF2CC08091E20084FF28C080E189BD82E189BD09B400FEC5
:207AC000FDCF8091D8008F7D8093D8008091E1008F7E8093E1008091E2008F7E8093E20012
:207AE0008091E20081608093E2008091B401882331F48091E30087FD02C081E001C084E067
:207B00008EBBECD18091E10083FF21C08091E20083FF1DC08091E100877F8093E10082E06A
:207B20008EBB1092B4018091E1008E7F8093E1008091E2008E7F8093E2008091E2008061E9
:207B40008093E20080E060E042E0D8DEC7D1FF91EF91BF91AF919F918F917F916F915F9130
:207B60004F913F912F910F900FBE0F901F9018959C014091BC015091BD014617570718F49D
:207B8000F90190E044C06115710511F0AB01F8CF8091E8008E778093E80040E050E0F0CF0F
:207BA0008EB3882309F444C0853009F443C08091E80083FF02C081E008958091E80082FD70
:207BC00031C08091E80080FF22C08091F3009091F200782F60E0292F30E0262B372B07C07A
:207BE00081918093F100415050402F5F3F4F4115510519F02830310598F390E02830310566
:207C000009F491E08091E8008E778093E8004115510531F6992321F605C08EB3882341F075
:207C2000853041F08091E80082FFF7CF80E0089582E0089583E008959C016115710529F47C
:207C40008091E8008B778093E800F90126C08EB3882391F1853091F18091E80083FF02C06C
:207C600081E008958091E80082FFF1CF06C08091F10081936150704059F02091F300809191
:207C8000F200322F20E090E0822B932B892B79F78091E8008B778093E80061157105B9F601
:207CA00005C08EB3882341F0853041F08091E80080FFF7CF80E0089582E0089583E00895C2
:207CC0000F931F93DF93CF9300D0CDB7DEB7E6EBF1E08091F100819381E0EE3BF807C9F792
:207CE00024DD8091E80083FFE4C08091B6019091B701953009F46DC0963040F4913081F1A7
:207D0000913070F0933009F0D4C02AC0983009F4A3C0993009F4B2C0963009F0CAC07CC023
:207D2000803809F4C6C0823809F0C3C08091BA0187708093E9008091EB001092E9002091DB
:207D4000E800277F2093E80090E025E0969587952A95E1F781708093F1001092F10087C0D8
:207D6000882319F0823009F0A4C08F71823009F0A0C08091B801882331F52091BA01277097
:207D800009F497C02093E9008091EB0080FF1BC0933021F48091EB00806213C08091EB0018
:207DA00080618093EB0081E090E002C0880F991F2A95E2F78093EA001092EA008091EB00E5
:207DC00088608093EB001092E9008091E800877F51C0882309F06DC01091B8011F770FB79B
:207DE000F8948091E800877F8093E8009ADD8091E80080FFFCCF8091E3008078812B809398
:207E0000E30080688093E300112311F482E001C083E08EBB0FBF4DC08058823008F049C033
:207E20008091B8019091B9016091BA01AE014F5F5F4F36DDBC01009709F43BC08091E8008E
:207E4000877F8093E80089819A8192DE8091E8008B778093E8002DC0803859F58091E800AA
:207E6000877F8093E8008091B4018093F1008091E8008E778093E80054DD1BC08823C9F4CA
:207E80009091B8019230A8F48091E800877F8093E8009093B40145DD8091B401882331F420
:207EA0008091E30087FD02C081E001C084E08EBB6CDC8091E80083FF0AC08091EB0080624E
:207EC0008093EB008091E800877F8093E8000F900F90CF91DF911F910F91089508951F9360
:207EE0008EB3882361F01091E9001092E9008091E80083FF01C0E4DE17701093E9001F916F
:207F00000895F999FECF92BD81BDF89A992780B50895262FF999FECF1FBA92BD81BD20BDBD
:207F20000FB6F894FA9AF99A0FBE01960895F894FFCF4341544552494E4100777700080031
:207F40000000000000080112011001020000084123360001000201000109023E00020100FF
:207F600080320904000001020201000524001001042402040524060001070582030800FF0C
:207F800009040100020A000000070504021000010705830210000104030904220341007216
:207FA000006400750069006E006F0020004C0065006F006E006100720064006F0000001836
:1A7FC00003410072006400750069006E006F0020004C004C004300000000D7
:00000001FF
