:100000000C942C010C94E8090C94C1090C949A09E5
:100010000C9473090C9454010C9454010C944C09E5
:100020000C9454010C9454010C9497010C9471029B
:100030000C9454010C9454010C9454010C945401EC
:100040000C9454010C9454010C9454010C945401DC
:100050000C9454010C9454010C9454010C94020916
:100060000C9454010C9454010C9454010C945401BC
:100070000C9454010C9454010C9454010C945401AC
:100080000C9454010C9454010C9454010C9454019C
:100090000C9454010C9454010C9454010C9454018C
:1000A0000C9454010C9454010C9454014E055105C8
:1000B0004005440548057205720572055505590548
:1000C0005D056305670572056D05C505CA05CF05A4
:1000D000D905E3052D062D062D06ED05F7050106CC
:1000E0000B0618062D06200607634236B79BD8A7D5
:1000F0001A39685618AEBAAB558C1D3CB7CC57634D
:10010000BD6DEDFD753EF6177231BF000000803FFA
:1001100008000000BE922449123EABAAAA2ABECD16
:10012000CCCC4C3E00000080BEABAAAAAA3E000088
:100130000000BF000000803F000000000008417880
:10014000D3BB4387D1133D190E3CC3BD4282AD2BB7
:100150003E68EC8276BED98FE1A93E4C80EFFFBEAF
:1001600001C4FF7F3F0000000000080B00020202F4
:100170000100090400000102020000052400100132
:1001800005240101010424020605240600010705D7
:10019000810310004009040100020A000000070565
:1001A0000202400000070583024000000403090426
:1001B00012010002EF0201404F1B069200010102F2
:1001C0000301537061726B46756E00537061726B00
:1001D00046756E2050726F204D6963726F0000008B
:1001E0000000240027002A002D003000000000003D
:1001F000250028002B002E00310004040404040311
:1002000004050202020204030202020206060606B6
:1002100006060404020202040404080201104080DD
:1002200040102040804080080204018040201002DD
:1002300001108010204040200000000200090F0043
:1002400000030401000C000000000000000000009A
:10025000000000000000A30F11241FBECFEFDAE062
:10026000DEBFCDBF12E0A0E0B1E0EAE9FAE202C0F1
:1002700005900D92A03FB107D9F724E0A0EFB2E0BE
:1002800001C01D92AF39B207E1F711E0CCE2D1E035
:1002900004C02197FE010E942C15CB32D107C9F76B
:1002A0000E94B50C0C944B150C9400000E9446154E
:1002B000DF92EF92FF920F931F93CF93DF93D82E8D
:1002C000F92EE42E062F10E0C8010196880F0E9437
:1002D000930783E00E949307CD2DDF2D0C0F1D1F88
:1002E000C017D10789F0E7FE03C0FE01849101C069
:1002F00088810E949307F82E80E00E9493078F2147
:1003000021968111EDCF01C081E0DF91CF911F9146
:100310000F91FF90EF90DF9008958093E900809116
:10032000F200882319F08AE38093E80008951F9271
:100330000F920FB60F9211242F933F934F935F9319
:100340006F937F938F939F93AF93BF93CF93EF93CD
:10035000FF93C091E1008091E100837F8093E100F1
:10036000C3FF0FC01092E90081E08093EB00109270
:10037000EC0082E38093ED0010924B0388E08093C1
:10038000F000C2FF19C083E00E948D018091F40249
:10039000882339F08091F40281508093F4028823FD
:1003A00089F180914A03882339F080914A03815072
:1003B00080934A03882341F1C4FF10C08091E2007A
:1003C0008E7E81608093E2008091E1008F7E809339
:1003D000E1008091F5028E7E806111C0C0FF16C0E1
:1003E0008091E2008E7E80618093E2008091E10046
:1003F0008E7E8093E1008091F5028E7E81608093F5
:10040000F50204C05D9ACDCF289AD6CFFF91EF9127
:10041000CF91BF91AF919F918F917F916F915F919C
:100420004F913F912F910F900FBE0F901F901895F5
:10043000DF92EF92FF920F931F93CF93DF93D82E0B
:100440008A017B01E40EF51EEB01CE15DF0571F08C
:10045000D7FE03C0FE01849101C088810E949307EA
:1004600021968111F2CF8FEF9FEF01C0C801DF917C
:10047000CF911F910F91FF90EF90DF9008950F9310
:100480001F93CF93DF931F92CDB7DEB782E08983AE
:1004900042E450E06AE671E080E80E9418020E949F
:1004A0007908DC0112960D911C9113970115110525
:1004B00089F0D801ED91FC910280F381E02DBE011D
:1004C0006F5F7F4FC801099597FD04C0F801008553
:1004D0001185ECCF89810F90DF91CF911F910F9102
:1004E00008951F920F920FB60F921124CF92DF92B0
:1004F000EF92FF920F931F932F933F934F935F932E
:100500006F937F938F939F93AF93BF93EF93FF93DB
:10051000CF93DF93CDB7DEB76C97DEBFCDBF109220
:10052000E9008091E80083FFFBC168E0CE014596B9
:100530000E946C0882EF8093E8008D8987FF05C0D8
:100540009091E80090FFFCCF03C09EEF9093E800ED
:10055000982F907609F0C6C09E894F89588D2F89B3
:10056000F88C91110CC0803829F480912403809379
:10057000F10002C01092F1001092F10045C19130DB
:1005800051F4811141C14130510509F03DC18091C3
:1005900024038D7F0BC0933061F4811135C141304C
:1005A000510509F031C180912403826080932403B6
:1005B0002BC1953049F48091E80080FFFCCF822F59
:1005C00080688093E30020C1963009F05EC00B8DF7
:1005D0001C8D22E01092E9001092F3021092F202B8
:1005E000F21232C01092F1021092F0020E943F0209
:1005F00099E0BE016F5F7F4FDB01E92F1D92EA9505
:10060000E9F79983FA8291E09E8390EA98879AEFBE
:1006100099872091F2023091F302275F3F4F3C838C
:100620002B838D831092E9001092F3021092F20254
:100630001093F1020093F00249E050E080E00E9444
:1006400018020E943F02E0C01093F1020093F002F2
:100650000E947908DC0112960D911C9113970115E7
:10066000110509F4BBC0D801ED91FC910480F5811E
:10067000E02DBE016B5E7F4FC8010995009709F020
:10068000C7C0F80100851185EACF973009F445C14C
:10069000983021F481E08093F100B6C0993009F0E0
:1006A000B3C0837009F039C1E7EBF1E081E031E0DC
:1006B00096E32081211109C08EE78093EA00109211
:1006C000EA008F8980934B039FC08093E9003093A9
:1006D000EB0021912093EC009093ED008F5F873029
:1006E00041F7EACF8B8D9C8D1092E9001092F302B6
:1006F0001092F2029093F1028093F002898D8111A1
:1007000053C08E899D89913A49F4813209F005C11F
:1007100047E050E064E071E080E0BBC0913209F056
:10072000FCC0833269F48F89988DA0E0B0E080939B
:10073000000190930101A0930201B093030164C0F2
:10074000803269F48091E80082FFFCCF67E084E0AA
:1007500091E00E946C088BEF8093E80055C08232D4
:1007600009F052C08F8980930B01EEEFFFE785916E
:1007700094918B3F9C4D19F0E0E0F8E002C0EEEF61
:10078000FAE08091040190910501A0910601B091D9
:100790000701803B9440A105B10509F09EC08091FE
:1007A0000B0180FF79C099C00E947908FC01028189
:1007B00013810115110509F4B0C0D801ED91FC9128
:1007C0000190F081E02DBE016B5E7F4FC80109955D
:1007D00081111AC0F80100851185EBCFF1E0FF16F9
:1007E00009F44EC0F3E0FF1298C08F89882309F402
:1007F0004AC0823089F440E862E18BEC91E00E94CB
:100800005801882309F489C08EEF8093E80088C0DE
:1008100018161906CCF381C0813029F440E868E04D
:1008200082EC91E0ECCF833009F077C00E94790828
:10083000DC011296ED90FC9013978E010F5F1F4F15
:100840006801E114F10479F0D701ED91FC91068083
:10085000F781E02DB801C7010995080F111DF701B7
:10086000E084F184EECFD8011C92F60101900020C3
:10087000E9F73197BF016C197D0940E0C601BFCF90
:1008800060EB71E002C06CEA71E0FB01449150E062
:1008900080E80E941802B8CFEE3F2AE0F20751F03C
:1008A000808191818737A7E79A0721F09093FF0A0B
:1008B0008093FE0A87E797E79183808380916000A9
:1008C000809323039BE088E10FB6F894A89580936A
:1008D00060000FBE9093600097CF80819181873731
:1008E000974709F091CFA895809160008861809327
:1008F00060008091230380936000EE3FBAE0FB0725
:1009000039F08091FE0A9091FF0A918380837CCF19
:100910001092FF0A1092FE0A77CF81E28093EB00DB
:100920006C960FB6F894DEBF0FBECDBFDF91CF91AE
:10093000FF91EF91BF91AF919F918F917F916F91B7
:100940005F914F913F912F911F910F91FF90EF90E9
:10095000DF90CF900F900FBE0F901F9018952FB77C
:10096000F89487708093E9009091E800892F807255
:1009700095FF04C09091F20080E4891B2FBF089579
:10098000CF92DF92EF92FF920F931F93CF93DF935B
:100990006C017A018B01C0E0D0E0CE15DF0581F05B
:1009A000D8016D918D01D601ED91FC910190F081FE
:1009B000E02DC6010995892B11F02196EECF7E011D
:1009C000C701DF91CF911F910F91FF90EF90DF90C2
:1009D000CF900895CF93DF931F92CDB7DEB7698391
:1009E000DC01ED91FC910280F381E02D41E050E0CB
:1009F000BE016F5F7F4F09950F90DF91CF910895F2
:100A000083E00E94AF0490E00895FC018485958501
:100A100097FD0BC09FB7F89482E08093E900809126
:100A2000F2009FBF90E0019608959FB7F89482E08E
:100A30008093E9008091F2009FBF90E008950895AF
:100A400080E090E00895362F90E0FC01E85CFD4FD7
:100A50004491FC01E75EFD4F2491FC01E650FE4FFE
:100A60008491882309F452C04423E1F150E0FA0153
:100A70003197EF30F105B0F5EA5AFF4F0C942C1581
:100A8000909180009F7707C0909180009F7D03C068
:100A900090918000977F9093800024C094B59F77B9
:100AA00002C094B59F7D94BD1DC0909190009F772A
:100AB00007C0909190009F7D03C090919000977F18
:100AC000909390000FC09091C0009F7703C09091C9
:100AD000C0009F7D9093C00005C09091C200977F99
:100AE0009093C200E82FF0E0EE0FFF1FE451FE4F9D
:100AF000A591B4919FB7F894311104C08C912095C1
:100B0000282302C0EC912E2B2C939FBF0895CF93E6
:100B1000DF93DB01482F50E0FA01E75EFD4F94912F
:100B2000FA01E650FE4F2491222399F030E0220F83
:100B3000331FF901E252FE4FC591D491F901E451FE
:100B4000FE4F259134912FB7F894E881E92BE88383
:100B50002FBF109711F460E004C0AF3FB10529F436
:100B600061E0DF91CF910C942305FA01E85CFD4F21
:100B7000E4914E2F50E0FA013197EF30F10508F083
:100B80006CC0EB59FF4F0C942C1584B5806884BD64
:100B9000A7BD68C084B5806284BDA8BD63C08091D4
:100BA0008000806880938000B0938900A0938800C3
:100BB00059C080918000806280938000B0938B0048
:100BC000A0938A004FC0809180008860809380004D
:100BD000B0938D00A0938C0045C0809190008068F8
:100BE00080939000B0939900A09398003BC08091AF
:100BF0009000806280939000B0939B00A0939A0035
:100C000031C080919000886080939000B0939D00E7
:100C1000A0939C0027C08091C00080688093C00092
:100C20008091C0008F7B8093C000A093CF001AC03A
:100C30008091C00080628093C000A093D00012C059
:100C40008091C20088608093C2008091C2008B7F37
:100C50008093C200A093D20005C0A038B1050CF06B
:100C60007FCF79CFDF91CF910895089580E090E014
:100C7000089580E00895FC0182818F5BFB018083F1
:100C800081E00895CF93DF93DC018C918823F9F004
:100C900077FD07C06F3F710529F024F06FEF70E01A
:100CA00001C060E017966C9317971F96ED91FC9129
:100CB0005097309739F0ED01862F0995682F70E035
:100CC000888101C070E0DF91CF910C948705DF919E
:100CD000CF91089583E00C948D010F931F93CF93D0
:100CE000DF931F92CDB7DEB78C01FC01848595851B
:100CF00097FF0EC0CE0101960E94870C019719F450
:100D0000898190E002C08FEF9FEFF801958784877B
:100D1000F801848595850F90DF91CF911F910F91F8
:100D20000895CF93DF931F92CDB7DEB7FC01848582
:100D3000958597FD05C02FEF3FEF358724870BC0C2
:100D4000CE0101960E94870C019719F4898190E0E9
:100D500002C08FEF9FEF0F90DF91CF91089584E055
:100D6000EAEEF2E0DB0101900D928A95E1F784E072
:100D70000895CF92DF92EF92FF920F931F93CF933C
:100D8000DF93CDB7DEB7C456D1090FB6F894DEBFF6
:100D90000FBECDBF6C01DB019C919E5F9C93FE0159
:100DA000319684E6DF011D928A95E9F788E0898310
:100DB0008BE08A8322E02C8391E09D839E8339E03F
:100DC000398774E07A879E879F873A8B44E24B8B02
:100DD0009C8B00E011E01E8B0D8B89E0E82EF12C3E
:100DE000F88EEF8A998F3B8F7C8F2F8F98A353E0DB
:100DF00059A387E08CA34DA39EA318A70FA301E4DA
:100E000010E01AA709A786E08BA74CA72DA79EA7DD
:100E10009FA789AB4AAB2BAB2CAB2DAB3FAB48AFFD
:100E200059AF9AAF5BAF9CAF2DAF9EAF21963FAF4E
:100E3000219722964FAF229723965FAF2397249650
:100E40002FAF249725967FAF259726969FAF26979D
:100E500027969FAF279728969FAF28972A963FAF50
:100E60002A9745E02B964FAF2B972D962FAF2D97B6
:100E700060E470E02F967FAF6EAF2F9763964FAF11
:100E8000639785E264968FAF649765969FAF659789
:100E900066969FAF669767969FAF679768963FAFD6
:100EA000689769964FAF69976B962FAF6B976D9662
:100EB0007FAF6EAF6D97A1964FAFA197A2968FAF00
:100EC000A297A3969FAFA397A4969FAFA497A5962A
:100ED0005FAFA597D60112969C9112979B839B8733
:100EE0009F5F9A8F9D8F13968C912C968FAF2C9726
:100EF0008F5F80686A968FAF6A9744E650E0BF01C3
:100F000080E00E941802CC59DF4F0FB6F894DEBF84
:100F10000FBECDBFDF91CF911F910F91FF90EF904A
:100F2000DF90CF9008954091F2025091F30220910A
:100F3000F0023091F10242175307B4F49091E800A7
:100F40009570E1F39091E80092FD19C08093F10053
:100F50008091F2029091F30201968F739927892B69
:100F600019F48EEF8093E8008091F2029091F302E1
:100F700001969093F3028093F20281E0089580E05D
:100F800008957F928F929F92AF92BF92CF92DF92FD
:100F9000EF92FF920F931F93CF93DF93C82E8B0195
:100FA0007A0180914B03811103C08FEF9FEF70C0D6
:100FB0008091F50280FF05C08091E00082608093FF
:100FC000E000CE2DDF2DD12C8AEFB82E8C2D87702E
:100FD000982E8C2D8072882E8C2D8074782E9AE31A
:100FE000A92E209719F4DD2009F44DC08C2D0E9404
:100FF000AF04811106C0BA94BB20B9F20E948B0BDA
:10100000F0CF282F30E0C217D3070CF48C2F9FB7F6
:10101000F8949092E9002091E80025FF32C0282F33
:1010200030E0C21BD30B882029F08150A0F0109231
:10103000F100FBCFF801C7FE0AC0815050F0449187
:101040004093F1003196F9CF41914093F1008150E6
:10105000D8F7020F131FDD2019F0A092E8000AC094
:101060008091E80085FD08C0A092E800DD24D394BB
:10107000209739F0D12C05C0209719F47110A09257
:10108000E8009FBFAECF5D9884E68093F402C7016D
:10109000DF91CF911F910F91FF90EF90DF90CF9054
:1010A000BF90AF909F908F907F900895CF93DF93E4
:1010B000EC0180910B01882331F083E00E94C1078D
:1010C0001816190634F081E090E09B838A8380E053
:1010D00090E0DF91CF910895615030F02091F100C0
:1010E000FC0120830196F8CF289884E680934A0378
:1010F00008958091420381110DC082E080933E03E8
:1011000084E080933F03109241031092400381E0FA
:10111000809342038EE393E008953FB7F894809163
:101120003A0390913B03A0913C03B0913D0326B557
:10113000A89B05C02F3F19F00196A11DB11D3FBF0F
:10114000BA2FA92F982F8827820F911DA11DB11D9D
:10115000BC01CD0142E0660F771F881F991F4A9599
:10116000D1F708950F931F93CF93DF9380912203BC
:101170008A3008F042C0C0912203D0E00E948D085E
:1011800000913503109136032091370330913803D5
:10119000DC01CB01801B910BA20BB30BCC0FDD1F2D
:1011A000CC0FDD1FC650DD4F88839983AA83BB8394
:1011B000E091220384E0E89FF0011124E650FD4F06
:1011C0004081518162817381809135039091360312
:1011D000A0913703B0913803840F951FA61FB71F46
:1011E0008093350390933603A0933703B09338036D
:1011F000809122038F5F80932203DF91CF911F9113
:101200000F9108951F920F920FB60F9211242F93F2
:101210003F938F939F93AF93BF938091F6029091EA
:10122000F702A091F802B091F9023091390323E05E
:10123000230F2D3720F40196A11DB11D05C026E80E
:10124000230F0296A11DB11D209339038093F6024E
:101250009093F702A093F802B093F90280913A03B9
:1012600090913B03A0913C03B0913D030196A11DD9
:10127000B11D80933A0390933B03A0933C03B0933A
:101280003D03BF91AF919F918F913F912F910F900F
:101290000FBE0F901F9018951F920F920FB60F92CE
:1012A00011242F933F934F935F936F937F938F936B
:1012B0009F93AF93BF93EF93FF93E0911401F0914D
:1012C00015010995FF91EF91BF91AF919F918F917A
:1012D0007F916F915F914F913F912F910F900FBE32
:1012E0000F901F9018951F920F920FB60F92112416
:1012F0002F933F934F935F936F937F938F939F931E
:10130000AF93BF93EF93FF93E0911201F09113011C
:101310000995FF91EF91BF91AF919F918F917F912F
:101320006F915F914F913F912F910F900FBE0F9052
:101330001F9018951F920F920FB60F9211242F93A2
:101340003F934F935F936F937F938F939F93AF934D
:10135000BF93EF93FF93E0911001F0911101099574
:10136000FF91EF91BF91AF919F918F917F916F917D
:101370005F914F913F912F910F900FBE0F901F9053
:1013800018951F920F920FB60F9211242F933F932F
:101390004F935F936F937F938F939F93AF93BF937D
:1013A000EF93FF93E0910E01F0910F010995FF91EA
:1013B000EF91BF91AF919F918F917F916F915F91CD
:1013C0004F913F912F910F900FBE0F901F90189546
:1013D0001F920F920FB60F9211242F933F934F93AA
:1013E0005F936F937F938F939F93AF93BF93EF938D
:1013F000FF93E0910C01F0910D010995FF91EF91A0
:10140000BF91AF919F918F917F916F915F914F911C
:101410003F912F910F900FBE0F901F901895AF9294
:10142000BF92CF92DF92EF92FF921F93CF93DF9301
:10143000EC018881882309F470C01F81611709F4C9
:101440006CC08885681709F468C01A8619861B86DF
:101450001C861D861E86A62EB12C4531510568F4CA
:10146000B501CE01DF91CF911F91FF90EF90DF90FA
:10147000CF90BF90AF900C9442065A8749876887F7
:10148000BA0180E090E00E945F126B017C01612F45
:1014900070E06A197B0977FF03C071956195710946
:1014A000072E000C880B990B0E9461129B01AC0166
:1014B000C701B6010E94B7116B017C0120E030E04A
:1014C000A9010E94111320E030E040E05FE387FDB6
:1014D00005C0C701B6010E94461104C0C701B6018C
:1014E0000E9445110E9429126431710518F07E8313
:1014F0006D8304C084E190E09E838D832FB7F894C0
:101500008091F6029091F702A091F802B091F90251
:101510002FBF89839A83AB83BC83DF91CF911F91C7
:10152000FF90EF90DF90CF90BF90AF9008954F92D3
:101530005F926F927F928F929F92AF92BF92EF9243
:10154000FF920F931F93CF93DF93C8EDD3E0412C0D
:10155000512C88EC682E82E4782E8881882309F447
:1015600092C089859A85892B09F48DC08FB7F8942C
:101570000091F6021091F7022091F8023091F902E1
:101580008FBF89819A81081B190B8D819E81081755
:10159000190708F478C0B80180E090E00E945F125B
:1015A0004B015C0169857A8580E090E00E945F12C2
:1015B0009B01AC01C501B4010E94B7114B015C0154
:1015C0009B01AC016B857C858D859E850E944611B3
:1015D0006B877C878D879E8720E030E040E85FE363
:1015E000C501B4010E941113688587FD0BC04B86AD
:1015F0005C866D867E861A86198670E0CE010E9412
:10160000420641C0EF80F12C70E06E197F09072E71
:10161000000C880B990B0E946112A50194010E9495
:1016200016134B015C0120E030E0A9010E94111368
:1016300020E030E040E05FE387FD05C0C501B40174
:101640000E94461104C0C501B4010E9445110E94C8
:1016500029126E0D7F1DCE010E94420689859A8552
:10166000801B910B9A8789872FB7F8948091F60297
:101670009091F702A091F802B091F9022FBF8983EF
:101680009A83AB83BC83619684E0CF34D80709F09A
:1016900064CFDF91CF911F910F91FF90EF90BF909A
:1016A000AF909F908F907F906F905F904F90089534
:1016B0000F931F93CF93DF93C7ECD3E006E910E0BD
:1016C00046E950E068ECCE010E940F0A8881882329
:1016D00039F089859A85892B19F00E94970AF6CFEF
:1016E000A80160E0CE010E940F0A8881882339F0AA
:1016F00089859A85892B19F00E94970AF6CF619601
:101700000F5E1F4F0D3081E01807D1F6DF91CF91AA
:101710001F910F910895CF92DF92EF92FF920E9456
:101720008D086B017C010E948D08DC01CB018C19B6
:101730009D09AE09BF09883E9340A105B10598F304
:10174000FF90EF90DF90CF9008950F931F93CF936A
:10175000DF9300D000D0CDB7DEB7962F4091C40202
:101760005091C5026091C6027091C7020091C802F3
:101770001091C9022091CA023091CB02401B510B3B
:10178000620B730B4F73552766277727452B462B24
:10179000472B81F428E0298380688A839B831C82FD
:1017A0008091CF0344E050E0BE016F5F7F4F8F5FB9
:1017B0000E94C1078091CF038F5F0E948D010F901F
:1017C0000F900F900F90DF91CF911F910F9108957F
:1017D0008F929F92AF92BF92EF92FF920F931F93BF
:1017E000CF93DF9300D000D0CDB7DEB7ECE4F3E0C9
:1017F000E12CF12CA481B581AB2B09F05DC04A012D
:101800005B01F70144E0EE0FFF1F4A95E1F7E45B4F
:10181000FC4FDF011D921D92828311969C9344E63A
:1018200050E0558344834091B2015091B3016091DF
:10183000B4017091B501480D591D6A1D7B1D468389
:10184000578360877187378726870091C40210917C
:10185000C5022091C6023091C7024091C802509142
:10186000C9026091CA027091CB02041B150B260BB2
:10187000370B0F73112722273327012B022B032B42
:1018800089F499E0998390E99A838B8384E68C8329
:101890008091CF0344E050E0BE016F5F7F4F8F5FC8
:1018A0000E94C107E8EDF3E08081882379F081850B
:1018B0009285892B59F017C0AFEFEA1AFA0A709691
:1018C000A6E0EA16F10409F095CF12C021E12E9DA1
:1018D000C0012F9D900D1124A4016FEF88529C4FE1
:1018E0000E940F0A05C0719684E0EE33F807E1F616
:1018F0000F900F900F900F90DF91CF911F910F914C
:10190000FF90EF90BF90AF909F908F90089520919F
:101910004B03211103C08FEF9FEF08955FB7F89439
:1019200022E02093E9002091F20030E01216130625
:1019300014F421E030E0422FFC0184E6415038F0FD
:10194000289880934A039091F1009193F7CF211545
:10195000310521F08091F200882319F05FBFC901A1
:1019600008958BE68093E800F9CFCF93DF93CDB74E
:10197000DEB729970FB6F894DEBF0FBECDBF7894BF
:1019800084B5826084BD84B5816084BD85B5826084
:1019900085BD85B5816085BD80916E008160809335
:1019A0006E0010928100809181008260809381009E
:1019B00080918100816080938100809180008160AE
:1019C000809380008091910082608093910080914B
:1019D000910081608093910080919000816080935C
:1019E00090008091C10084608093C1008091C1000B
:1019F00082608093C1008091C10081608093C100AA
:101A00008091C30081608093C3008091C000826098
:101A10008093C0008091C20081608093C200809159
:101A20007A00846080937A0080917A00826080934B
:101A30007A0080917A00816080937A0080917A00A8
:101A4000806880937A0010924B03109224031092C6
:101A5000F5028091D70081608093D70080EA80935F
:101A6000D80089B5806189BD89B5826089BD09B416
:101A700000FEFDCF0E948B0B8091D8008F7C80618F
:101A80008093D8008091E000807F8093E000809177
:101A9000E1008E7E8093E1008DE08093E200559A14
:101AA000209A0E94580B82EB98E090930F0180934C
:101AB0000E01809169008C6080936900E99A0E9410
:101AC000580B1092280310922703BCE02B2E312CC8
:101AD0002FB7F8948091F6029091F702A091F80246
:101AE000B091F9022FBF8093B2019093B301A093FC
:101AF000B401B093B501809122038A3008F430C15B
:101B0000809122038A3009F02BC101E010E021E02E
:101B10002987812C912C5401412C512C320180EACF
:101B200096E8A1E0B0E08D839E83AF83B887C12C97
:101B3000D12C7601F801EE0FFF1FEE0FFF1FE650CC
:101B4000FD4F6081718182819381603AA6E87A07B6
:101B5000A1E08A07910508F41986C616D706E8069B
:101B6000F90610F46B017C012D813E814F8158856F
:101B7000621773078407950720F46D837E838F8334
:101B80009887460E571E681E791E9B01AC010E9465
:101B900008150E945F129B01AC01C501B4010E94AF
:101BA00046114B015C010F5F1F4F0A30110511F602
:101BB00039853111D3C0C301B20129E030E040E0E2
:101BC00050E00E94141129013A0120E030E040E188
:101BD00051E4C501B4010E94B7114B015C01A3019E
:101BE0009201C301B2010E9408150E945F129B017D
:101BF000AC01C501B4010E94451120E030E040E095
:101C00005FE30E9483134B015C0120E030E040E879
:101C10005FE30E94B21187FF06C0812C912CE0E89F
:101C2000AE2EEFE3BE2E8D819E81AF81B885C81A9E
:101C3000D90AEA0AFB0AC701B6010E945F126D8346
:101C40007E838F8398872AE939E949ED5FE3C501EF
:101C5000B4010E9416139B01AC016D817E818F81BE
:101C600098850E94111318160CF42DC177C08815A1
:101C700099058CF06F5F262F30E0241735070CF0A4
:101C80004BC1220F331FF901EA5EFE4F8080918025
:101C90008815990561F7C701B6012FE730E040E0EC
:101CA00050E00E9414112B013C019B01AC0121501A
:101CB000310941095109A0E6B9E00E9401112EE75E
:101CC00030E040E050E00E94E21026503F4FC90152
:101CD00064E670E00E9418158C010D5F1F4F6901CA
:101CE000E12CF12CC501B1010E9418152CE0269FB2
:101CF000C001279F900D112420E030E0B701A6011C
:101D0000880D991D0E94E80BA0E5B0E0B093260372
:101D1000A093250350922A0340922903012E000C20
:101D2000220B330B00932F031093300320933103C6
:101D3000309332038091B2019091B301A091B4012C
:101D4000B091B501080F191F2A1F3B1F00932B03E9
:101D500010932C0320932D0330932E031092220313
:101D60000CE413E088EDE82E83E0F82EF80184817E
:101D70009581892B01F1468157816085718580911C
:101D8000B2019091B301A091B401B091B501841753
:101D90009507A607B70778F0628180E00E94A50B3F
:101DA000D80115961C921E92149741EE50E060E007
:101DB000C7010E940F0A005F1F4FB1E1EB0EF11C3B
:101DC000E3E00C3A1E0791F68091270390912803D7
:101DD0002091290330912A03281B390B09F469C08B
:101DE0004091B2015091B3016091B4017091B5017D
:101DF000C0902B03D0902C03E0902D03F0902E0385
:101E0000C416D506E606F70608F053C0C0902F03A7
:101E1000D0903003E0903103F09032034C0D5D1D03
:101E20006E1D7F1D40932B0350932C0360932D0355
:101E300070932E031216130614F4019601C0019735
:101E400090932803809327038091C4029091C50248
:101E5000A091C602B091C7024091C8025091C90238
:101E60006091CA027091CB02841B950BA60BB70B35
:101E70008F739927AA27BB27892B8A2B8B2BA1F439
:101E800080912703909125032BE0298320EB2A835F
:101E90009B838C838091CF0344E050E0BE016F5F51
:101EA0007F4F8F5F0E94C1078091CF038F5F0E9499
:101EB0008D010E94970A80E090E0892B09F408CEFA
:101EC0000E94000005CE0E948B10C301B2012FE7D3
:101ED00030E040E050E00E9414119B01AC01215021
:101EE000310941095109ACE3B0E00E9401112EE72C
:101EF00030E040E050E00E94E210DA01C90184962F
:101F0000A11DB11D5C01B1010E941815409116017F
:101F10005091170161E0AFCE96E0892E912CBBCE97
:101F2000FC01608317821086118212821382148250
:101F300016821582128611861386148615861686D9
:101F4000108A17860895109252041092510488EE58
:101F500093E0A0E0B0E08093530490935404A093E6
:101F60005504B093560480ED92E090935004809312
:101F70004F048FEF9FEF90935C0480935B0482E0AB
:101F80008093D0038093D10386ED93E09093D303A5
:101F90008093D2031092D5031092D40382EE92E084
:101FA0009093CD038093CC0380E88093D60381E89F
:101FB0008093D7030E947908FC0121818091D0038E
:101FC00090E0820F911D0897C4F5A281B38110970C
:101FD00029F48CEC93E0938382830EC018968D9144
:101FE0009C911997009711F0DC01F8CF8CEC93E0ED
:101FF00019969C938E93189780818093CE0381814C
:102000008093CF0390818091D103890F808380E0FA
:102010009091D003891788F4A091D203B091D30393
:10202000A80FB11D9C91A181B0E0AA54BE4F9C9312
:1020300091819F5F91838F5FEBCF69E088ED93E0A3
:102040000E94900F6AE089EE93E00E94900F65E095
:102050008AEF93E00E94900F6DE08BE094E00E9485
:10206000900F63E08CE194E00E94900F66E08DE2B7
:1020700094E00E94900F6BE08EE394E00C94900F3C
:102080008F929F92AF92BF92CF92DF92EF92FF9288
:10209000CF93DF93EC01688179818A819B816115FF
:1020A00071058105910521F464E279ED8BE597E0F6
:1020B0002DE133EF41E050E00E94E21049015A0166
:1020C0009B01AC01A7EAB1E40E9401116B017C0104
:1020D000ACEEB4EFA50194010E940F11DC01CB011D
:1020E0008C0D9D1DAE1DBF1DB7FF03C00197A1093B
:1020F000B04888839983AA83BB83BC01CD019F77B5
:10210000DF91CF91FF90EF90DF90CF90BF90AF9095
:102110009F908F9008958F929F92AF92BF92CF928F
:10212000DF92EF92FF926091BD017091BE018091AC
:10213000BF019091C001611571058105910521F4E0
:1021400064E279ED8BE597E02DE133EF41E050E07B
:102150000E94E21049015A019B01AC01A7EAB1E4D7
:102160000E9401116B017C01ACEEB4EFA50194015A
:102170000E940F11DC01CB018C0D9D1DAE1DBF1DFA
:10218000B7FF03C00197A109B0488093BD019093A8
:10219000BE01A093BF01B093C001BC01CD019F77E8
:1021A000FF90EF90DF90CF90BF90AF909F908F9077
:1021B00008956093BD017093BE018093BF01909319
:1021C000C0010895052E97FB1EF400940E94F9109B
:1021D00057FD07D00E94141107FC03D04EF40C9455
:1021E000F91050954095309521953F4F4F4F5F4FD7
:1021F000089590958095709561957F4F8F4F9F4F73
:1022000008950E943611A59F900DB49F900DA49F34
:10221000800D911D11240895B7FF0C9401110E94A7
:102220000111821B930B0895A1E21A2EAA1BBB1B5E
:10223000FD010DC0AA1FBB1FEE1FFF1FA217B30792
:10224000E407F50720F0A21BB30BE40BF50B661FA8
:10225000771F881F991F1A9469F76095709580956C
:1022600090959B01AC01BD01CF010895A29FB001E3
:10227000B39FC001A39F700D811D1124911DB29FBA
:10228000700D811D1124911D08955058BB27AA2758
:102290000E945D110C94D7120E94C91238F00E945E
:1022A000D01220F039F49F3F19F426F40C94C61292
:1022B0000EF4E095E7FB0C94C012E92F0E94E8129F
:1022C00058F3BA17620773078407950720F079F46B
:1022D000A6F50C940A130EF4E0950B2EBA2FA02D40
:1022E0000B01B90190010C01CA01A0011124FF27C3
:1022F000591B99F0593F50F4503E68F11A16F040BE
:10230000A22F232F342F4427585FF3CF46953795BC
:102310002795A795F0405395C9F77EF41F16BA0B81
:10232000620B730B840BBAF09150A1F0FF0FBB1F2F
:10233000661F771F881FC2F70EC0BA0F621F731F78
:10234000841F48F4879577956795B795F7959E3FD5
:1023500008F0B0CF9395880F08F09927EE0F979566
:10236000879508950E949C1208F481E008950E94C8
:10237000CB110C94D7120E94D01258F00E94C912AF
:1023800040F029F45F3F29F00C94C01251110C94D5
:102390000B130C94C6120E94E81268F39923B1F350
:1023A000552391F3951B550BBB27AA27621773077B
:1023B000840738F09F5F5F4F220F331F441FAA1F0F
:1023C000A9F335D00E2E3AF0E0E832D091505040CB
:1023D000E695001CCAF72BD0FE2F29D0660F771F79
:1023E000881FBB1F261737074807AB07B0E809F05F
:1023F000BB0B802DBF01FF2793585F4F3AF09E3FE4
:10240000510578F00C94C0120C940B135F3FE4F369
:10241000983ED4F3869577956795B795F7959F5F26
:10242000C9F7880F911D9695879597F90895E1E072
:10243000660F771F881FBB1F621773078407BA07D1
:1024400020F0621B730B840BBA0BEE1F88F7E0952C
:1024500008950E9430126894B1110C940B130895E2
:102460000E94F01288F09F5798F0B92F9927B75122
:10247000B0F0E1F0660F771F881F991F1AF0BA9528
:10248000C9F714C0B13091F00E940A13B1E0089569
:102490000C940A13672F782F8827B85F39F0B93F5B
:1024A000CCF3869577956795B395D9F73EF49095DB
:1024B0008095709561957F4F8F4F9F4F0895E89459
:1024C00009C097FB3EF490958095709561957F4F7C
:1024D0008F4F9F4F9923A9F0F92F96E9BB2793952A
:1024E000F695879577956795B795F111F8CFFAF43A
:1024F000BB0F11F460FF1BC06F5F7F4F8F4F9F4F6B
:1025000016C0882311F096E911C0772321F09EE8C8
:10251000872F762F05C0662371F096E8862F70E02E
:1025200060E02AF09A95660F771F881FDAF7880F08
:102530009695879597F90895990F0008550FAA0B5E
:10254000E0E8FEEF16161706E807F907C0F01216C6
:102550001306E407F50798F0621B730B840B950BC9
:1025600039F40A2661F0232B242B252B21F408951E
:102570000A2609F4A140A6958FEF811D811D0895BB
:1025800097F99F6780E870E060E008959FEF80EC26
:10259000089500240A9416161706180609060895C9
:1025A00000240A9412161306140605060895092E2F
:1025B0000394000C11F4882352F0BB0F40F4BF2B9E
:1025C00011F460FF04C06F5F7F4F8F4F9F4F0895DE
:1025D00057FD9058440F551F59F05F3F71F04795D4
:1025E000880F97FB991F61F09F3F79F087950895B9
:1025F000121613061406551FF2CF4695F1DF08C0D8
:10260000161617061806991FF1CF869571056105F4
:1026100008940895E894BB2766277727CB0197F99C
:1026200008950E949C1208F48FEF08950E942913C8
:102630000C94D7120E94C91238F00E94D01220F0D8
:10264000952311F00C94C0120C94C61211240C9412
:102650000B130E94E81270F3959FC1F3950F50E0A1
:10266000551F629FF001729FBB27F00DB11D639F44
:10267000AA27F00DB11DAA1F649F6627B00DA11DEA
:10268000661F829F2227B00DA11D621F739FB00D90
:10269000A11D621F839FA00D611D221F749F332700
:1026A000A00D611D231F849F600D211D822F762F99
:1026B0006A2F11249F5750409AF0F1F088234AF076
:1026C000EE0FFF1FBB1F661F771F881F91505040E2
:1026D000A9F79E3F510580F00C94C0120C940B1387
:1026E0005F3FE4F3983ED4F3869577956795B79569
:1026F000F795E7959F5FC1F7FE2B880F911D969583
:10270000879597F90895FA01EE0FFF1F309621057E
:102710003105A1F16115710561F48038BFE39B07B4
:1027200049F168949038810561F08038BFEF9B07CC
:1027300041F099234AF5FF3FE1053105210519F1E3
:10274000E8940894E795D901AA2329F4AB2FBE2F6A
:10275000F85FD0F310C0FF5F70F4A695E0F7F7398B
:1027600050F019F0FF3A38F49F779F930DD00F90F7
:1027700007FC9058089546F00C94C61260E070E093
:1027800080E89FE308954FE79F775F934F933F93D0
:102790002F930E947E142F913F914F915F910E9441
:1027A00016130C94DB1329F416F00C94C0120C943D
:1027B0000A130C94C6120E94F012A8F39638A0F7E0
:1027C00007F80F92E8942BE33AEA48EB5FE70E94A0
:1027D0002C130F920F920F924DB75EB70F920E947B
:1027E000C614E8EEF0E00E940D144F915F91EF9156
:1027F000FF91E595EE1FFF1F49F0FE57E068442763
:10280000EE0F441FFA95E1F74195550B0E944014D5
:102810000F9007FE0C9434140895DF93CF931F9309
:102820000F93FF92EF92DF927B018C01689406C0B8
:10283000DA2EEF010E942913FE01E894A59125915B
:10284000359145915591A6F3EF010E945D11FE016E
:102850009701A801DA9469F7DF90EF90FF900F914C
:102860001F91CF91DF9108959B01AC0160E070E072
:1028700080E89FE30C94B7110C94C0120C94FA14E6
:102880000E94F012D8F39923C9F3940F511DA3F3BA
:102890009150504094F059F0882332F0660F771F22
:1028A000881F91505040C1F79E3F51052CF7880F6B
:1028B000911D9695879597F908955F3FACF0983EE6
:1028C0009CF0BB27869577956795B79508F4B1601E
:1028D0009395C1F7BB0F58F711F460FFE8CF6F5F16
:1028E0007F4F8F4F9F4FE3CF0C940B1316F00C9438
:1028F000FA140C94C61268940C94C0120E94F01240
:10290000A8F39923C1F3AEF3DF93CF931F930F93F3
:10291000FF92C92FDD2788232AF02197660F771FA2
:10292000881FDAF720E030E040E85FEB9FE388396A
:1029300020F0803E38F021968F770E944611E0E12A
:10294000F1E004C00E944611EDE3F1E00E940D1495
:102950008B01BE01EC01FB2E6F5771097595771F36
:10296000880B990B0E94611228E132E741E35FE393
:102970000E942913AF2D9801AE01FF900F911F9176
:10298000CF91DF910E945D110C94D712FA01DC0106
:10299000AA0FBB1F9B01AC01BF5728F42227332786
:1029A0004427507820C0B75190F4AB2F00244695AF
:1029B00037952795011CA395D2F3002071F0220FC3
:1029C000331F441FB395DAF30ED00C9445116130D8
:1029D0007105A0E88A07B94630F49B01AC0166276F
:1029E000772788279078309621F02083318342839F
:1029F000538308959F3F31F0915020F48795779548
:102A00006795B795880F911D9695879597F90895C5
:102A1000DB018F939F930E940111BF91AF91A29F01
:102A2000800D911DA39F900DB29F900D11240895CC
:102A300097FB072E16F4009407D077FD09D00E946B
:102A4000321507FC05D03EF4909581959F4F08956F
:102A5000709561957F4F0895EE0FFF1F0590F491DB
:102A6000E02D0994AA1BBB1B51E107C0AA1FBB1F85
:102A7000A617B70710F0A61BB70B881F991F5A950A
:102A8000A9F780959095BC01CD01089581E090E073
:0A2A9000F8940C944B15F894FFCF56
:102A9A00FFFFFFFF00E100000000000035063506D9
:102AAA003506350635060C00010002000300040055
:102ABA00050006000700080009000A000B000C00C8
:102ACA000700010003000500060008000A000C00C8
:102ADA0000000000000000000000070001000200E2
:102AEA0002000500060009000B00000000000000BB
:102AFA0000000000070001000300040006000800AF
:102B0A0009000B00000000000000000000000500A2
:102B1A0001000300050008000A0000000000000090
:102B2A00000000000000000005000100040006008B
:102B3A0008000B0000000000000000000000000078
:102B4A0000000100000000C18081000000010000B7
:102B5A000001000600000000000000000000000064
:102B6A00000000000000000000000000000000005B
:102B7A00000000000000000000000000000000004B
:102B8A00000000000000000000000000000000003B
:102B9A00000000000000000000000000000000002B
:102BAA00000000000000000000000000000000001B
:102BBA00000000000000000000000000000000000B
:102BCA0000000000000000000000000000000000FB
:102BDA0000000000000000000000000000000000EB
:102BEA0000000000000000000000000000000000DB
:102BFA0000000000000000000000000000000000CB
:102C0A0000000000000000000000000000000000BA
:102C1A0000000000000000000000000000000000AA
:102C2A00000000000000000000000000000000009A
:102C3A00000000000000000000000000000000008A
:102C4A00000000000000000000000000000000007A
:102C5A00000000000000000000000000000000006A
:102C6A00EA04560800056A06050591066D06000085
:102C7A0000003906B9063606AF064D494449000038
:1070000055C000006EC000006CC000006AC00000E7
:1070100068C0000066C0000064C0000062C00000DC
:1070200060C000005EC00000FCC400005AC0000048
:1070300058C0000056C0000054C0000052C00000FC
:1070400050C000005DC000004CC000004AC00000FD
:1070500048C0000046C0000044C0000042C000001C
:1070600040C000003EC000003CC000003AC000002C
:1070700038C0000036C0000034C0000032C000003C
:1070800030C000002EC000002CC000002AC000004C
:1070900028C0000026C0000024C0000022C000005C
:1070A00020C000001EC000001CC0000011241FBE34
:1070B000CFEFDAE0DEBFCDBF11E0A0E0B1E0E6E463
:1070C000FFE702C005900D92A43BB107D9F711E08C
:1070D000A4EBB1E001C01D92AD3CB107E1F74FD385
:1070E00030C78ECFF89410926F001092810081E02B
:1070F00085BF15BE47985D9A289A0C9400000895A4
:107100001F920F920FB60F9211242F938F939F937C
:10711000EF93FF9310928500109284008091B40148
:107120009091B501009741F001979093B50180933C
:10713000B401892B09F45D9A8091B6019091B70151
:10714000009741F001979093B7018093B601892B86
:1071500009F4289A8091BA019091BB01019690930D
:10716000BB018093BA01E0E0F0E0859194918F5FDC
:107170009F4F49F08091B8019091B9010196909389
:10718000B9018093B801FF91EF919F918F912F9159
:107190000F900FBE0F901F90189584E08093E90028
:1071A0000DC08091E8008B778093E80003C08EB318
:1071B000882351F08091E80082FFF9CF8091E800A8
:1071C00085FFEFCF8091F1000895982F83E08093A1
:1071D000E9008091E80085FD0DC08091E8008E7780
:1071E0008093E80003C08EB3882369F08091E800A3
:1071F00080FFF9CF9093F1005D9884E690E0909342
:10720000B5018093B40108954F925F926F927F927F
:107210008F929F92AF92BF92CF92DF92EF92FF92A6
:107220000F931F93CF93DF9384E08093E9008091C5
:10723000E80082FF57C2289884E690E09093B70157
:107240008093B601AADF182F853481F48CE49DE188
:107250009093B9018093B80107B600FCFDCFF9996E
:10726000FECF81E180935700E89503C0843519F47F
:1072700094DF8DE00DC28C34E1F38035D1F3843797
:1072800021F484E4A2DF80E003C2813611F489E5B1
:10729000FFC18134B1F481DF182F7FDF90E0880FC8
:1072A000991FAA2797FDA095BA2F312F330F20E001
:1072B000442737FD4095542F822B932BA42BB52BBD
:1072C000B8C1803711F483E5E3C1833549F4C0E0E8
:1072D000D1E089917ADF21E0C730D207D1F7D9C157
:1072E000863521F481E371DF80E3D2C1833731F445
:1072F00087E86BDF85E969DF8EE1CAC18536B9F4BD
:10730000E0E0F0E093E085E090935700E89507B661
:1073100000FCFDCF80935700E89507B600FCFDCF39
:10732000E058FF4FA0E7E030FA0771F7A2CF8237AD
:1073300039F4E1E0F0E089E0809357008491A8C13E
:10734000863439F4E0E0F0E089E0809357008491DE
:107350009FC18E3439F4E3E0F0E089E08093570078
:10736000849196C1813539F4E2E0F0E089E08093C0
:10737000570084918DC1823631F489E526DF80E0A3
:1073800024DF80E885C1823419F0873609F0E5C032
:107390001092B9011092B80100DF082FFEDEF82E1E
:1073A000FCDE682E8554823008F071C1902F80E099
:1073B000CF2DD0E0C82BD92B10926F00173609F0D3
:1073C0004BC081E180935700E895DD24CC24C39421
:1073D0003FC0E090BD01F090BE010091BF0110914F
:1073E000C001B6E46B16D9F4ED2DF0E0EE29FF29CB
:1073F000E4918E2FEADEDD2081F082E090E0A0E0D3
:10740000B0E0E80EF91E0A1F1B1FE092BD01F092CA
:10741000BE010093BF011093C001DC2418C0D80145
:10742000C701B695A7959795879575D5CEDE82E06D
:1074300090E0A0E0B0E0E80EF91E0A1F1B1FE092EA
:10744000BD01F092BE010093BF011093C0012197CE
:10745000209709F0BECF7DC08090BD019090BE0105
:10746000A090BF01B090C00196E4691609F05DC01C
:1074700083E0F40180935700E89507B600FCFDCF48
:1074800054C0F6E46F1661F5772031F1E090BD014C
:10749000F090BE010091BF011091C0017EDED82E98
:1074A000CC24852D90E08C299D29F7010C01409278
:1074B0005700E895112482E090E0A0E0B0E0E80EEB
:1074C000F91E0A1F1B1FE092BD01F092BE0100933E
:1074D000BF011093C00102C060DE582E742423C087
:1074E000E090BD01F090BE010091BF011091C0017C
:1074F00016950795F794E79450DE682FC70113D5CA
:107500008091BD019091BE01A091BF01B091C001D9
:107510000296A11DB11D8093BD019093BE01A09361
:10752000BF01B093C001219704C05524772444249F
:107530004394209709F0A5CF96E4691641F485E0BD
:10754000F40180935700E89507B600FCFDCF8DE06D
:107550003CDE82E080936F009CC0833471F4009124
:10756000BD011091BE0119DE90E021E0F8010C018F
:1075700020935700E89511247CCE833619F5E090CE
:10758000BD01F090BE010091BF011091C00105DE68
:10759000F701E16090E021E00C0120935700E895AD
:1075A000112482E090E0A0E0B0E0E80EF91E0A1F8E
:1075B0001B1FE092BD01F092BE010093BF0110932A
:1075C000C00157CE8D3661F4E091BD01F091BE014E
:1075D00085E080935700E89507B600FCFDCF49CEC3
:1075E000823551F4E091BD01F091BE0105911491F5
:1075F000812FEBDD802F4CC0843421F5E090BD015C
:10760000F090BE010091BF011091C0011695079541
:10761000F794E794C2DD682FC70185D48091BD013E
:107620009091BE01A091BF01B091C0010296A11D31
:10763000B11D8093BD019093BE01A093BF01B09393
:10764000C00117CE843609F5E090BD01F090BE016F
:107650000091BF011091C001D801C701B695A7954F
:107660009795879558D4B1DD82E090E0A0E0B0E036
:10767000E80EF91E0A1F1B1FE092BD01F092BE0129
:107680000093BF011093C00104C08B3111F08FE350
:107690009CDD83E08093E9009091E8008091E80010
:1076A0008E778093E80095FF04C010C08EB38823C6
:1076B000C9F08091E80080FFF9CF8091E8008E77D3
:1076C0008093E80003C08EB3882361F08091E800C6
:1076D00080FFF9CF84E08093E9008091E8008B7708
:1076E0008093E800DF91CF911F910F91FF90EF9071
:1076F000DF90CF90BF90AF909F908F907F906F90D2
:107700005F904F9008959091C501892F8F778132B6
:1077100049F58091C6018032A1F0813219F5913A84
:1077200009F58091E800877F8093E8008CE091E084
:1077300067E070E027D28091E8008B778093E800C3
:107740000895913279F48091E800877F8093E80072
:107750008CE091E067E070E079D28091E8008E776C
:107760008093E800089582E061EC42E0D1D083E0AC
:1077700061E842E1CDD084E060E842E1C9C01F93F6
:10778000209100081092000844B714BE88E10FB69B
:10779000F89480936000109260000FBE80E8E0E0F3
:1077A000F0E00FB6F89480936100E09361000FBEA3
:1077B00031E035BF92E095BF3F9A209A559A809369
:1077C00061001092610047985D9A289A1092890092
:1077D0008AEF8093880090936F0083E0809381000C
:1077E000859194918F5F9F4F11F03093BC01942F3E
:1077F00041FF19C0809109012817A9F08093000862
:10780000789480911301882339F08091BA01909186
:10781000BB018F5E9240C8F3F8941092000881E09B
:10782000809313010CC090FF04C08091BC01882399
:1078300051F493FF09C080910901281729F0809124
:10784000BC01882309F04EDCD4D078941092B901A1
:107850001092B8011EEF20C0D7DC4BD38091B80145
:107860009091B90181549F4110F0109213018091C1
:10787000C1019091C20101969093C2018093C10110
:10788000292F97FF03C0512F591B252F220F28178F
:1078900010F4479801C0479A809113018823E1F6BC
:1078A0008091E00081608093E0001CDC80E090E04B
:1078B0001F910895FA01923049F0933061F09130B0
:1078C000F9F484E191E022E130E01EC086E291E02B
:1078D0002EE330E019C0882329F484E691E024E007
:1078E00030E012C0813029F488E691E02EE130E0EA
:1078F0000BC0823029F488E891E02AE230E004C02D
:1079000080E090E020E030E091838083C901089519
:107910008093E9008091EB0081608093EB001092EE
:10792000ED006093EC004093ED008091EE00881F25
:107930008827881F08958091C50188238CF403C08F
:107940008EB38823B1F08091E80082FFF9CF809157
:10795000E8008B778093E80008958EB3882349F080
:107960008091E80080FFF9CF8091E8008E778093C6
:10797000E8000895EF92FF920F931F9345D04CD0EB
:1079800008ED10E0F80180818F7780838081806826
:10799000808380818F7D808319BC1EBA1092C301C1
:1079A00080EEE82EF12CF70180818B7F8083F80137
:1079B00080818160808380E060E042E0A9DFE1EEC9
:1079C000F0E080818E7F8083E2EEF0E08081816054
:1079D0008083808188608083F70180818E7F8083AF
:1079E000F8018081806180831F910F91FF90EF905B
:1079F0000895E7EDF0E08081816080838AE482BFB2
:107A000081E08093C401B6CFE8EDF0E080818E7F05
:107A100080831092E20008951092DA001092E10043
:107A200008951F920F920FB60F9211242F933F9338
:107A30004F935F936F937F938F939F93AF93BF9376
:107A4000EF93FF938091DA0080FF1BC08091D800F4
:107A500080FF17C08091DA008E7F8093DA008091DA
:107A6000D90080FF0BC080E189BD82E189BD09B4E6
:107A700000FEFDCF81E08EBB3BD203C019BC1EBA15
:107A800037D28091E10080FF17C08091E20080FF33
:107A900013C08091E2008E7F8093E2008091E2002B
:107AA00080618093E2008091D80080628093D8004A
:107AB00019BC85E08EBB1CD28091E10084FF2CC0F4
:107AC0008091E20084FF28C080E189BD82E189BD08
:107AD00009B400FEFDCF8091D8008F7D8093D8003F
:107AE0008091E1008F7E8093E1008091E2008F7EA3
:107AF0008093E2008091E20081608093E2008091B7
:107B0000C301882331F48091E30087FD02C081E046
:107B100001C084E08EBBECD18091E10083FF21C0E5
:107B20008091E20083FF1DC08091E100877F8093F8
:107B3000E10082E08EBB1092C3018091E1008E7F54
:107B40008093E1008091E2008E7F8093E20080913B
:107B5000E20080618093E20080E060E042E0D8DEF5
:107B6000C7D1FF91EF91BF91AF919F918F917F917D
:107B70006F915F914F913F912F910F900FBE0F909A
:107B80001F9018959C014091CB015091CC01461754
:107B9000570718F4F90190E044C06115710511F020
:107BA000AB01F8CF8091E8008E778093E80040E049
:107BB00050E0F0CF8EB3882309F444C0853009F437
:107BC00043C08091E80083FF02C081E00895809166
:107BD000E80082FD31C08091E80080FF22C08091E2
:107BE000F3009091F200782F60E0292F30E0262BEF
:107BF000372B07C081918093F100415050402F5F97
:107C00003F4F4115510519F02830310598F390E0A8
:107C10002830310509F491E08091E8008E77809357
:107C2000E8004115510531F6992321F605C08EB3C0
:107C3000882341F0853041F08091E80082FFF7CF42
:107C400080E0089582E0089583E008959C01611525
:107C5000710529F48091E8008B778093E800F901A1
:107C600026C08EB3882391F1853091F18091E80090
:107C700083FF02C081E008958091E80082FFF1CF88
:107C800006C08091F10081936150704059F02091BD
:107C9000F3008091F200322F20E090E0822B932BB2
:107CA000892B79F78091E8008B778093E800611544
:107CB0007105B9F605C08EB3882341F0853041F0D7
:107CC0008091E80080FFF7CF80E0089582E008957A
:107CD00083E008950F931F93DF93CF9300D0CDB728
:107CE000DEB7E5ECF1E08091F100819381E0ED3CBD
:107CF000F807C9F708DD8091E80083FFE4C08091B0
:107D0000C5019091C601953009F46DC0963040F4DC
:107D1000913081F1913070F0933009F0D4C02AC0D5
:107D2000983009F4A3C0993009F4B2C0963009F034
:107D3000CAC07CC0803809F4C6C0823809F0C3C00C
:107D40008091C90187708093E9008091EB001092C7
:107D5000E9002091E800277F2093E80090E025E0EB
:107D6000969587952A95E1F781708093F10010929E
:107D7000F10087C0882319F0823009F0A4C08F7108
:107D8000823009F0A0C08091C701882331F520918D
:107D9000C901277009F497C02093E9008091EB0096
:107DA00080FF1BC0933021F48091EB00806213C0F0
:107DB0008091EB0080618093EB0081E090E002C055
:107DC000880F991F2A95E2F78093EA001092EA0043
:107DD0008091EB0088608093EB001092E900809125
:107DE000E800877F51C0882309F06DC01091C7015A
:107DF0001F770FB7F8948091E800877F8093E800A1
:107E00009ADD8091E80080FFFCCF8091E3008078CC
:107E1000812B8093E30080688093E300112311F4A9
:107E200082E001C083E08EBB0FBF4DC0805882301E
:107E300008F049C08091C7019091C8016091C901C3
:107E4000AE014F5F5F4F36DDBC01009709F43BC0C8
:107E50008091E800877F8093E80089819A8192DE93
:107E60008091E8008B778093E8002DC0803859F529
:107E70008091E800877F8093E8008091C301809320
:107E8000F1008091E8008E778093E80054DD1BC0FC
:107E90008823C9F49091C7019230A8F48091E8003A
:107EA000877F8093E8009093C30145DD8091C301F3
:107EB000882331F48091E30087FD02C081E001C096
:107EC00084E08EBB50DC8091E80083FF0AC0809183
:107ED000EB0080628093EB008091E800877F8093C5
:107EE000E8000F900F90CF91DF911F910F910895AF
:107EF00008951F938EB3882361F01091E9001092CA
:107F0000E9008091E80083FF01C0E4DE1770109360
:107F1000E9001F910895F999FECF92BD81BDF89AAD
:107F2000992780B50895262FF999FECF1FBA92BDE3
:107F300081BD20BD0FB6F894FA9AF99A0FBE01964A
:067F40000895F894FFCF44
:107F46004341544552494E41007700080000000065
:107F56000000080112011001020000084F1B0592E3
:107F660001000201000109023E00020100803209FF
:107F7600040000010202010005240010010424028D
:107F8600040524060001070582030800FF09040111
:107F960000020A000000070504021000010705831D
:107FA60002100001040309041E03500072006F0052
:107FB60020004D006900630072006F00200035004C
:107FC60056002000200000002A03530070006100C4
:107FD60072006B00460075006E00200045006C00C4
:107FE60065006300740072006F006E006900630034
:047FF6007300000014
:040000030000700089
:00000001FF
